:100000000C9438000C9455000C9455000C94550039
:100010000C9455000C9455000C9455000C9455000C
:100020000C9455000C9455000C9455000C945500FC
:100030000C9455000C9455000C9455000C945500EC
:100040000C9455000C9455000C9455000C945500DC
:100050000C9455000C9455000C9455000C945500CC
:100060000C9455000C9455000C9455000C945500BC
:1000700011241FBECFEFD4E0DEBFCDBF12E0A0E061
:10008000B1E0E2E7F0E102C005900D92AC35B107B6
:10009000D9F722E0ACE5B2E001C01D92A636B20766
:1000A000E1F70E9457000C9437080C9400008FE190
:1000B00090E00E94A5008AE091E00E94B9040E94AD
:1000C0004801892B41F08FE091E09F938F930E942C
:1000D000A3040F900F900E943701892B41F088E212
:1000E00091E09F938F930E94A3040F900F900E9422
:1000F000B4000DE411E00E946201EC018B811F92BB
:100100008F938A811F928F9389811F928F93888109
:100110001F928F931F930F930E94A304CE010E94FE
:1001200073038DB79EB70A960FB6F8949EBF0FBEA5
:100130008DBFE1CF5F9BFECF8CB190E008955D9BBA
:10014000FECF8CB980E090E0089589B990BD88E138
:100150008AB98EE880BD6AE970E08FE990E00E947C
:10016000580480E090E00895CF92DF92EF92FF92E2
:100170000F931F93CF93DF9382E791E00E94B9041E
:100180000E9448047C010E944D04C12CD12C00E047
:1001900010E0C8E8D1E00E944804F601F85E8083D0
:1001A00020812817A9F099279F938F931F922F934F
:1001B000DF92CF92DF93CF930E94A3040F5F1F4F74
:1001C0008DB79EB708960FB6F8949EBF0FBE8DBF31
:1001D0009FEFC91AD90AC11488E0D806E1F6C70111
:1001E0000E944D04C0E0D0E0E12CF12C0F2EF2EC87
:1001F000CF2EF1E0DF2EF02D0E944804FE01F85EC4
:1002000020812817B1F099279F938F931F922F93E6
:10021000DF93CF93DF92CF920E94A3049FEFE91A5E
:10022000F90A8DB79EB708960FB6F8949EBF0FBE19
:100230008DBF2196C11598E0D907F1F6FF92EF9294
:100240001F930F9380E092E09F938F930E94A304EB
:100250000F900F900F900F900F900F90DF91CF9114
:100260001F910F91FF90EF90DF90CF90089585B789
:10027000806885BF80B7806280BF80E090E008958D
:10028000985EFC0160830895985EFC01808108956A
:100290008D9A8FB580648FBD8FB581608FBD8FB50E
:1002A00082608FBD8EB588608EBD8EB580618EBD3B
:1002B00081E090E09BBD8ABD8EB581608EBD80E0FF
:1002C00090E00895CF92DF92EF92FF920F931F93E9
:1002D000CF93DF9384E090E00E94DB026C0184E026
:1002E000F60111928A95E9F71092001080E090EFE4
:1002F0000197F1F78601C0E0D0E0E12C6894FF247B
:10030000F4F8F7016081C230D10518F0F80160837C
:1003100018C06734A0F070E067547109072E000C14
:10032000880B990B0E94E20128E431EE4AEB5FE36F
:100330000E9446020E94B101F801608302C0F801E8
:10034000108221960F5F1F4FC430D105D1F6C60130
:10035000DF91CF911F910F91FF90EF90DF90CF90A1
:1003600008950E94250288F09F5798F0B92F992789
:10037000B751B0F0E1F0660F771F881F991F1AF090
:10038000BA95C9F714C0B13091F00E943F02B1E0B4
:1003900008950C943F02672F782F8827B85F39F0B3
:1003A000B93FCCF3869577956795B395D9F73EF429
:1003B00090958095709561957F4F8F4F9F4F0895D1
:1003C000E89409C097FB3EF49095809570956195EF
:1003D0007F4F8F4F9F4F9923A9F0F92F96E9BB27A5
:1003E0009395F695879577956795B795F111F8CF21
:1003F000FAF4BB0F11F460FF1BC06F5F7F4F8F4F8C
:100400009F4F16C0882311F096E911C0772321F081
:100410009EE8872F762F05C0662371F096E8862F19
:1004200070E060E02AF09A95660F771F881FDAF770
:10043000880F9695879597F9089557FD9058440F22
:10044000551F59F05F3F71F04795880F97FB991F33
:1004500061F09F3F79F087950895121613061406F0
:10046000551FF2CF4695F1DF08C01616170618067D
:10047000991FF1CF86957105610508940895E89458
:10048000BB2766277727CB0197F908950E94590269
:100490000C94CA020E94BC0238F00E94C30220F0F1
:1004A000952311F00C94B3020C94B90211240C940E
:1004B00040020E941D0270F3959FC1F3950F50E01A
:1004C000551F629FF001729FBB27F00DB11D639F06
:1004D000AA27F00DB11DAA1F649F6627B00DA11DAC
:1004E000661F829F2227B00DA11D621F739FB00D52
:1004F000A11D621F839FA00D611D221F749F3327C2
:10050000A00D611D231F849F600D211D822F762F5A
:100510006A2F11249F5750409AF0F1F088234AF037
:10052000EE0FFF1FBB1F661F771F881F91505040A3
:10053000A9F79E3F510580F00C94B3020C94400241
:100540005F3FE4F3983ED4F3869577956795B7952A
:10055000F795E7959F5FC1F7FE2B880F911D969544
:10056000879597F9089597F99F6780E870E060E0B4
:1005700008959FEF80EC089500240A94161617063C
:1005800018060906089500240A9412161306140684
:1005900005060895092E0394000C11F4882352F0E7
:1005A000BB0F40F4BF2B11F460FF04C06F5F7F4F9F
:1005B0008F4F9F4F08950F931F93CF93DF938230F8
:1005C000910510F482E090E0E0915E02F0915F020C
:1005D00020E030E0A0E0B0E0309719F14081518197
:1005E0000281138148175907C8F08417950769F4E9
:1005F000109731F012960C93129713961C9327C004
:1006000000935E0210935F0222C02115310519F09C
:100610004217530718F49A01BD01EF01DF01F801F9
:10062000DBCF21153105F9F0281B390B24303105BA
:1006300080F48A819B816115710521F0FB01938310
:10064000828304C090935F0280935E02FE01329623
:1006500044C0FE01E20FF31F8193919322503109B0
:10066000398328833AC020915C0230915D02232BAC
:1006700041F4209102013091030130935D022093F7
:100680005C0220910001309101012115310541F4F6
:100690002DB73EB74091040150910501241B350B45
:1006A000E0915C02F0915D02E217F307A0F42E1BCB
:1006B0003F0B2817390778F0AC014E5F5F4F2417C6
:1006C000350748F04E0F5F1F50935D0240935C0268
:1006D0008193919302C0E0E0F0E0CF01DF91CF91F0
:1006E0001F910F910895CF93DF93009709F481C074
:1006F000FC01329713821282A0915E02B0915F02D8
:10070000109781F420813181820F931F20915C0228
:1007100030915D022817390751F5F0935D02E0939F
:100720005C0267C0ED0120E030E0CE17DF0740F447
:100730004A815B819E0141155105F1F0EA01F5CF37
:10074000D383C28340815181840F951FC817D90775
:1007500059F488819981840F951F02969183808333
:100760008A819B81938382832115310529F4F0933B
:100770005F02E0935E023DC0E901FB83EA83499199
:100780005991C40FD51FEC17FD0761F48081918149
:10079000840F951F0296E901998388838281938152
:1007A0009B838A83E0E0F0E012968D919C911397F1
:1007B000009719F0FD01DC01F7CF8D919C91119705
:1007C0009D012E5F3F4F820F931F20915C0230915D
:1007D0005D022817390769F4309729F410925F02F7
:1007E00010925E0202C013821282B0935D02A09347
:1007F0005C02DF91CF9108958F929F92AF92BF924A
:10080000CF92DF92EF92FF92CF93DF93EC0168815A
:1008100079818A819B81611571058105910521F49A
:1008200064E279ED8BE597E02DE133EF41E050E0B4
:100830000E949D0749015A019B01AC01A7EAB1E45E
:100840000E94BC076B017C01ACEEB4EFA5019401E2
:100850000E94CA07DC01CB018C0D9D1DAE1DBF1D82
:10086000B7FF03C00197A109B04888839983AA8381
:10087000BB839F77DF91CF91FF90EF90DF90CF9078
:10088000BF90AF909F908F9008950E94FC030895B1
:1008900086E091E00E94FC030895A0E0B0E0809320
:1008A000060190930701A0930801B09309010895F0
:1008B0000F931F93CF93DF93009731F46115710568
:1008C00019F480E090E03AC08B01EC016EE070E03A
:1008D00081E090E00E94CA06FC01892B91F380E838
:1008E00083830115110571F01387028781E88383E3
:1008F0008091600290916102892B21F4F093610252
:10090000E09360022097C9F0D187C087838182601D
:1009100083838091620290916302892B71F4F0933A
:100920006302E09362028091640290916502892BD8
:1009300021F4F0936502E0936402CF01DF91CF913F
:100940001F910F910895A0E0B0E0E9EAF4E00C9463
:10095000DF07AE014B5F5F4FFA0161917191AF010B
:1009600080916202909163020E94E904E2E00C949B
:10097000FB070F931F93CF93DF93E0916202F091F7
:100980006302238121FF1BC08C01D0E0C0E0F8018D
:1009900081918F016091620270916302DB01189670
:1009A000ED91FC911997882331F00995892B79F302
:1009B000DFEFCFEFECCF8AE00995892B19F08FEFAD
:1009C0009FEF02C08D2F9C2FDF91CF911F910F9130
:1009D0000895ABE0B0E0EFEEF4E00C94CF076C01CB
:1009E0007B018A01FC0117821682838181FFCCC1C1
:1009F000CE0101963C01F6019381F70193FD8591AB
:100A000093FF81917F01882309F4BAC1853239F4BB
:100A100093FD859193FF81917F01853229F4B60181
:100A200090E00E940307E7CF912C212C312CFFE1AD
:100A3000F315D8F08B3279F038F4803279F08332C4
:100A4000A1F4232D20611DC08D3261F0803369F443
:100A5000232D216016C0832D8260382EE32DE460A3
:100A60003E2E2AC0F32DF8601DC037FC2DC020EDAE
:100A7000280F2A3040F08E32B9F436FC81C1232D84
:100A80002064322E19C036FE06C08AE0989E200DE2
:100A90001124922E11C0EAE02E9E200D1124222E48
:100AA000F32DF0623F2E08C08C3621F4832D806830
:100AB000382E02C0883641F4F70193FD859193FFEB
:100AC00081917F018111B3CF982F9F7D95549330F1
:100AD00028F40C5F1F4F9FE399830DC0833631F0DC
:100AE000833771F0833509F059C021C0F801808146
:100AF00089830E5F1F4F88248394912C530113C068
:100B00002801F2E04F0E511CF801A080B18036FEA2
:100B100003C0692D70E002C06FEF7FEFC5010E9436
:100B2000F8064C018201F32DFF773F2E16C02801F5
:100B300022E0420E511CF801A080B18036FE03C0B5
:100B4000692D70E002C06FEF7FEFC5010E94E606DD
:100B50004C01F32DF0683F2E820133FC1BC0822D27
:100B600090E088169906B0F4B60180E290E00E9409
:100B700003072A94F4CFF50137FC859137FE819164
:100B80005F01B60190E00E94030721102A9421E042
:100B9000821A91088114910471F7E8C0843611F02B
:100BA000893641F5F80137FE07C060817181828185
:100BB00093810C5F1F4F08C060817181072E000C6C
:100BC000880B990B0E5F1F4FF32DFF763F2E97FF7B
:100BD00009C090958095709561957F4F8F4F9F4F7D
:100BE000F0683F2E2AE030E0A3010E943F07882EE4
:100BF000861845C0853731F4232D2F7EB22E2AE08A
:100C000030E025C0932D997FB92E8F36C1F018F4AE
:100C1000883579F0B5C0803719F0883721F0B0C039
:100C2000E92FE061BE2EB4FE0DC0FB2DF460BF2E97
:100C300009C034FE0AC0292F2660B22E06C028E063
:100C400030E005C020E130E002C020E132E0F801F0
:100C5000B7FE07C060817181828193810C5F1F4F55
:100C600006C06081718180E090E00E5F1F4FA3019C
:100C70000E943F07882E8618FB2DFF773F2E36FEF9
:100C80000DC0232D2E7FA22E891458F434FE0BC0E4
:100C900032FC09C0832D8E7EA82E05C0B82CA32C53
:100CA00003C0B82C01C0B92CA4FE0FC0FE01E80D92
:100CB000F11D8081803321F49A2D997EA92E09C0DF
:100CC000A2FE06C0B394B39404C08A2D867809F0BE
:100CD000B394A3FC11C0A0FE06C0B21488F4280C83
:100CE000922C9B180EC0B21460F4B60180E290E022
:100CF0000E940307B394F7CFB21418F42B1802C064
:100D0000982C212CA4FE10C0B60180E390E00E9434
:100D10000307A2FE17C0A1FC03C088E790E002C051
:100D200088E590E0B6010CC08A2D867859F0A1FEC6
:100D300002C08BE201C080E2A7FC8DE2B60190E028
:100D40000E940307891438F4B60180E390E00E9402
:100D500003079A94F7CF8A94F301E80DF11D80817F
:100D6000B60190E00E9403078110F5CF222009F41C
:100D700042CEB60180E290E00E9403072A94F6CFAB
:100D8000F6018681978102C08FEF9FEF2B96E2E1FB
:100D90000C94EB070F931F93CF93DF93869F8001F3
:100DA000879F100D969F100D1124C8010E94DB0231
:100DB000EC01009729F0A80160E070E00E94F106C4
:100DC000CE01DF91CF911F910F910895FC01059005
:100DD000615070400110D8F7809590958E0F9F1F3D
:100DE0000895DC0101C06D9341505040E0F7089533
:100DF000FC016150704001900110D8F780959095EA
:100E00008E0F9F1F08950F931F93CF93DF93FB01C6
:100E1000238121FD03C08FEF9FEF2CC022FF16C05E
:100E200046815781248135814217530744F4A081BC
:100E3000B1819D012F5F3F4F318320838C932681A9
:100E400037812F5F3F4F3783268314C08B01EC011E
:100E5000FB010084F185E02D0995892BE1F6D8018D
:100E600016968D919C911797019617969C938E9349
:100E70001697CE01DF91CF911F910F910895FA013E
:100E8000AA27283051F1203181F1E8946F936E7FC9
:100E90006E5F7F4F8F4F9F4FAF4FB1E03ED0B4E0BA
:100EA0003CD0670F781F891F9A1FA11D680F791FFB
:100EB0008A1F911DA11D6A0F711D811D911DA11D0C
:100EC00020D009F468943F912AE0269F112430191C
:100ED000305D3193DEF6CF010895462F4770405DB7
:100EE0004193B3E00FD0C9F7F6CF462F4F70405D66
:100EF0004A3318F0495D31FD4052419302D0A9F7C1
:100F0000EACFB4E0A6959795879577956795BA95BA
:100F1000C9F700976105710508959B01AC010A2E80
:100F200006945795479537952795BA95C9F7620F57
:100F3000731F841F951FA01D0895052E97FB1EF497
:100F400000940E94B40757FD07D00E94060807FCD2
:100F500003D04EF40C94B4075095409530952195EC
:100F60003F4F4F4F5F4F08959095809570956195D5
:100F70007F4F8F4F9F4F08950E942808A59F900D87
:100F8000B49F900DA49F800D911D11240895B7FF6B
:100F90000C94BC070E94BC07821B930B08952F92F0
:100FA0003F924F925F926F927F928F929F92AF92F9
:100FB000BF92CF92DF92EF92FF920F931F93CF9346
:100FC000DF93CDB7DEB7CA1BDB0B0FB6F894DEBFDD
:100FD0000FBECDBF09942A88398848885F846E8403
:100FE0007D848C849B84AA84B984C884DF80EE804D
:100FF000FD800C811B81AA81B981CE0FD11D0FB656
:10100000F894DEBF0FBECDBFED010895A1E21A2E08
:10101000AA1BBB1BFD010DC0AA1FBB1FEE1FFF1F9C
:10102000A217B307E407F50720F0A21BB30BE40BEC
:10103000F50B661F771F881F991F1A9469F7609533
:101040007095809590959B01AC01BD01CF010895ED
:10105000A29FB001B39FC001A39F700D811D1124F9
:10106000911DB29F700D811D1124911D0895F8945A
:02107000FFCFB0
:1010720000006602200001000000546573740046FF
:1010820061696C656420746F20696E697469616C52
:10109200697A6520414443004661696C6564207445
:1010A2006F20696E697469616C697A65206578740C
:1010B20065726E616C206D656D6F72790063683068
:1010C2003A2025642C206368313A2025642C206361
:1010D20068323A2025642C206368333A2025640A5A
:1010E2000D005374617274696E67205352414D2032
:1010F200746573742E2E2E005772697465207068A1
:10110200617365206572726F723A206578745F72DE
:10111200616D5B2534645D203D20253032582028E6
:1011220073686F756C642062652025303258290A15
:101132000D0052657472696576616C207068617326
:1011420065206572726F723A206578745F72616DA4
:101152005B2534645D203D20253032582028736899
:101162006F756C642062652025303258290A0D00A3
:101172005352414D207465737420636F6D706C65BA
:101182007465642077697468200A0D2534642065CB
:1011920072726F727320696E207772697465207043
:1011A2006861736520616E64200A0D2534642065D0
:1011B20072726F727320696E2072657472696576DD
:0C11C200616C2070686173650A0A0D0002
:00000001FF
