:100000000C9438000C9455000C9455000C94550039
:100010000C9455000C9455000C9455000C9455000C
:100020000C9455000C9455000C9455000C945500FC
:100030000C9455000C9455000C9455000C945500EC
:100040000C9455000C9455000C9455000C945500DC
:100050000C9455000C9455000C9455000C945500CC
:100060000C9455000C9455000C9455000C945500BC
:1000700011241FBECFEFD4E0DEBFCDBF15E0A0E05E
:10008000B1E0E6E4F5E102C005900D92AC36B107AF
:10009000D9F725E0ACE6B5E001C01D92A637B2075E
:1000A000E1F70E9457000C94A10A0C940000EF9213
:1000B000FF920F931F93CF938FE190E00E94BD00BA
:1000C0008EE394E00E9423070E946001892B41F097
:1000D00083E494E09F938F930E940D070F900F90FD
:1000E0000E944F01892B41F08CE594E09F938F9300
:1000F0000E940D070F900F900E94CC000E94A40256
:100100000E94DA0200E010E018C06C2F802F0E94DD
:100110004903E114F10429F060E080E00E94C80284
:1001200004C060E080E00E94C802CF5FC03869F779
:100130000F5F1F4F0830110531F0C0E0780181E0FA
:10014000E822FF24E2CF64E182E00E94490381E4D7
:100150000E94810380E090E0CF911F910F91FF906A
:10016000EF9008955F9BFECF8CB190E008955D9B6A
:10017000FECF8CB980E090E0089589B990BD88E108
:100180008AB98EE880BD62EB70E087EB90E00E9458
:10019000C20680E090E00895CF92DF92EF92FF9246
:1001A0000F931F93CF93DF9381E894E00E9423077E
:1001B0000E94B2067C010E94B706C12CD12C00E03F
:1001C00010E0C7E9D4E00E94B206F601F85E808331
:1001D00020812817A9F099279F938F931F922F931F
:1001E000DF92CF92DF93CF930E940D070F5F1F4FD7
:1001F0008DB79EB708960FB6F8949EBF0FBE8DBF01
:100200009FEFC91AD90AC11488E0D806E1F6C701E0
:100210000E94B706C0E0D0E0E12CF12C0F2EF1EDEA
:10022000CF2EF4E0DF2EF02D0E94B206FE01F85E24
:1002300020812817B1F099279F938F931F922F93B6
:10024000DF93CF93DF92CF920E940D079FEFE91AC1
:10025000F90A8DB79EB708960FB6F8949EBF0FBEE9
:100260008DBF2196C11598E0D907F1F6FF92EF9264
:100270001F930F938FE095E09F938F930E940D073C
:100280000F900F900F900F900F900F90DF91CF91E4
:100290001F910F91FF90EF90DF90CF90089585B759
:1002A000806885BF80B7806280BF80E090E008955D
:1002B000985EFC0160830895985EFC01808108953A
:1002C0008D9A8FB580648FBD8FB581608FBD8FB5DE
:1002D00082608FBD8EB588608EBD8EB580618EBD0B
:1002E00081E090E09BBD8ABD8EB581608EBD80E0CF
:1002F00090E008955F926F927F928F929F92AF925B
:10030000BF92CF92DF92EF92FF920F931F93CF9302
:10031000DF9384E090E00E9445055C0184E0F501F4
:1003200011928A95E9F71092001080E090EF019702
:10033000F1F78501EE24E394F12CC0E0D0E0C12C6C
:100340006894DD24D4F80F2EFCE96F2EF02D77246D
:100350007A940F2EF4E68F2EF02D912C0F2EF4E6CA
:100360005F2EF02D06C021969FEFE91AF90A0E5F65
:100370001F4FF601608170E0C130D105A9F56E39DB
:100380007105CCF4CB018E599109589EB001599E4C
:10039000700D1124072E000C880B990B0E944C0441
:1003A00020E030E04EEA52EC0E94A2030E941404C6
:1003B000362F272FA7C06E597109072E000C880B06
:1003C000990B0E944C0420E030E044EA52E40E9481
:1003D000A20320E030E048EC52EC0E94D8040E94D6
:1003E0001404362F272F8EC0209709F041C06E3994
:1003F00071052CF56E597109072E000C880B990BAD
:100400000E944C0420E030E04EE153EC0E94A20335
:1004100020E030E048EC52E40E94D80420E030E0D4
:100420004CE552E40E94A20320E030E048EC52E4A4
:100430000E94D8040E941404362F272F63C06E59DF
:100440007109072E000C880B990B0E944C0420E0C8
:1004500030E04AEA52E40E94A20320E030E048EC97
:1004600052EC0E94D8040E941404362F272F4AC051
:100470006D397105CCF46D597109072E000C880B8C
:10048000990B0E944C0420E030E04DE153EC0E94B7
:10049000A20320E030E048EC52E40E94D8040E941D
:1004A0001404362F272F18C06D597109072E000C20
:1004B000880B990B0E944C0420E030E044EC52E49D
:1004C0000E94A20320E030E048EC52EC0E94D804E5
:1004D0000E941404362F272F832F922F85369105E3
:1004E00014F0882D992D8C39FFEF9F0714F4862D79
:1004F000972DF80191838083F4E0EF16F1040CF45A
:1005000032CF11C0832F922F8536910514F0882D9C
:10051000992D8C392FEF920714F4862D972DF80121
:100520009183808320CFC501DF91CF911F910F91DF
:10053000FF90EF90DF90CF90BF90AF909F908F9003
:100540007F906F905F90089587B3806B87BB81B376
:100550008C6181BB81E58DB982B3886182BB0895CE
:100560008FB9779BFECF8FB10895779BFECF8FB168
:1005700008958130910519F4939A949808950297FB
:1005800011F4949A9398089582B3886182BB089578
:10059000CF93C82F611102C0929A01C0929881E056
:1005A00090E00E94B9028C2F0E94B0020E94C40207
:1005B000CF91089561E08EEA0E94C80261E081EA6D
:1005C0000E94C80261E08AED0E94C80261E082E1F7
:1005D0000E94C80261E088EC0E94C80261E088EADB
:1005E0000E94C80261E08FE30E94C80261E085EDCD
:1005F0000E94C80261E080E80E94C80261E081E8D0
:100600000E94C80261E080E50E94C80261E089EDB5
:100610000E94C80261E081E20E94C80261E080E2BB
:100620000E94C80261E082E00E94C80261E08BED96
:100630000E94C80261E080E30E94C80261E08DEA86
:100640000E94C80261E080E00E94C80261E084EA82
:100650000E94C80261E086EA0E94C80261E08FEA57
:100660000E94C8020895877061E0806B0E94C802F2
:100670000895CF93C82FCF7761E08F700E94C80292
:100680008C2F82958F7061E080610E94C802CF91AB
:100690000895CF93C62F0E9433038C2F0E943903F5
:1006A000CF910895FF920F931F93CF93DF93F62E70
:1006B00040320CF44FE3042E000C550B405251090C
:1006C000EA01CC0FDD1FCC0FDD1FC40FD51FC25AAE
:1006D000DD4F6F2D0E9449038E012596F39460E053
:1006E000F80181918F010E94C8028F2D0E94390369
:1006F0000C171D07A1F7DF91CF911F910F91FF906C
:1007000008951F93CF93DF9380320CF480E290E042
:10071000EC01CC0FDD1FCC0FDD1F8C0F9D1FEC01FA
:10072000C65FDE4F10E060E089910E94C8021F5F43
:100730001530C9F760E080E00E94C802DF91CF91D8
:100740001F9108950E94B6030C949E040E94970482
:1007500058F00E94900440F029F45F3F29F00C9477
:10076000870451110C94D2040C948D040E94AF04A0
:1007700068F39923B1F3552391F3951B550BBB27D0
:10078000AA2762177307840738F09F5F5F4F220F15
:10079000331F441FAA1FA9F335D00E2E3AF0E0E80C
:1007A00032D091505040E695001CCAF72BD0FE2F56
:1007B00029D0660F771F881FBB1F261737074807EA
:1007C000AB07B0E809F0BB0B802DBF01FF279358A2
:1007D0005F4F3AF09E3F510578F00C9487040C94DB
:1007E000D2045F3FE4F3983ED4F3869577956795FE
:1007F000B795F7959F5FC9F7880F911D96958795D7
:1008000097F90895E1E0660F771F881FBB1F6217F5
:1008100073078407BA0720F0621B730B840BBA0BB3
:10082000EE1F88F7E09508950E941B046894B111AB
:100830000C94D20408950E94B70488F09F5798F052
:10084000B92F9927B751B0F0E1F0660F771F881FD5
:10085000991F1AF0BA95C9F714C0B13091F00E94EF
:10086000D104B1E008950C94D104672F782F882724
:10087000B85F39F0B93FCCF3869577956795B39516
:10088000D9F73EF490958095709561957F4F8F4F85
:100890009F4F0895E89409C097FB3EF4909580958A
:1008A000709561957F4F8F4F9F4F9923A9F0F92F36
:1008B00096E9BB279395F695879577956795B795B4
:1008C000F111F8CFFAF4BB0F11F460FF1BC06F5F9A
:1008D0007F4F8F4F9F4F16C0882311F096E911C0AC
:1008E000772321F09EE8872F762F05C0662371F0CD
:1008F00096E8862F70E060E02AF09A95660F771FE1
:10090000881FDAF7880F9695879597F9089597F9D4
:100910009F6780E870E060E008959FEF80EC0895A5
:1009200000240A94161617061806090608950024CE
:100930000A9412161306140605060895092E039448
:10094000000C11F4882352F0BB0F40F4BF2B11F4BC
:1009500060FF04C06F5F7F4F8F4F9F4F089557FD1B
:100960009058440F551F59F05F3F71F04795880F1D
:1009700097FB991F61F09F3F79F0879508951216B4
:1009800013061406551FF2CF4695F1DF08C0161660
:1009900017061806991FF1CF869571056105089411
:1009A0000895E894BB2766277727CB0197F9089528
:1009B0000E94EB040C949E040E94900438F00E9464
:1009C000970420F0952311F00C9487040C948D0467
:1009D00011240C94D2040E94AF0470F3959FC1F3CC
:1009E000950F50E0551F629FF001729FBB27F00DDD
:1009F000B11D639FAA27F00DB11DAA1F649F662732
:100A0000B00DA11D661F829F2227B00DA11D621F80
:100A1000739FB00DA11D621F839FA00D611D221F3A
:100A2000749F3327A00D611D231F849F600D211D1E
:100A3000822F762F6A2F11249F5750409AF0F1F0A1
:100A400088234AF0EE0FFF1FBB1F661F771F881F0A
:100A500091505040A9F79E3F510580F00C948704B7
:100A60000C94D2045F3FE4F3983ED4F386957795D7
:100A70006795B795F795E7959F5FC1F7FE2B880FB0
:100A8000911D9695879597F908950F931F93CF938E
:100A9000DF938230910510F482E090E0E0916E05E2
:100AA000F0916F0520E030E0A0E0B0E0309719F160
:100AB000408151810281138148175907C8F084177A
:100AC000950769F4109731F012960C9312971396CC
:100AD0001C9327C000936E0510936F0522C021154B
:100AE000310519F04217530718F49A01BD01EF01BF
:100AF000DF01F801DBCF21153105F9F0281B390B97
:100B00002430310580F48A819B816115710521F0C3
:100B1000FB019383828304C090936F0580936E05DD
:100B2000FE01329644C0FE01E20FF31F81939193C0
:100B300022503109398328833AC020916C053091C5
:100B40006D05232B41F42091020130910301309374
:100B50006D0520936C052091000130910101211554
:100B6000310541F42DB73EB7409104015091050184
:100B7000241B350BE0916C05F0916D05E217F3072E
:100B8000A0F42E1B3F0B2817390778F0AC014E5FFD
:100B90005F4F2417350748F04E0F5F1F50936D05C8
:100BA00040936C058193919302C0E0E0F0E0CF01A7
:100BB000DF91CF911F910F910895CF93DF9300970D
:100BC00009F481C0FC01329713821282A0916E0554
:100BD000B0916F05109781F420813181820F931FAE
:100BE00020916C0530916D052817390751F5F09368
:100BF0006D05E0936C0567C0ED0120E030E0CE1795
:100C0000DF0740F44A815B819E0141155105F1F0F7
:100C1000EA01F5CFD383C28340815181840F951FB0
:100C2000C817D90759F488819981840F951F0296B6
:100C3000918380838A819B819383828321153105EF
:100C400029F4F0936F05E0936E053DC0E901FB8345
:100C5000EA8349915991C40FD51FEC17FD0761F440
:100C600080819181840F951F0296E9019983888381
:100C7000828193819B838A83E0E0F0E012968D91DC
:100C80009C911397009719F0FD01DC01F7CF8D912E
:100C90009C9111979D012E5F3F4F820F931F2091D2
:100CA0006C0530916D052817390769F4309729F4E0
:100CB00010926F0510926E0502C013821282B093DB
:100CC0006D05A0936C05DF91CF9108958F929F924F
:100CD000AF92BF92CF92DF92EF92FF92CF93DF93CA
:100CE000EC01688179818A819B816115710581059B
:100CF000910521F464E279ED8BE597E02DE133EF86
:100D000041E050E00E94070A49015A019B01AC01F1
:100D1000A7EAB1E40E94260A6B017C01ACEEB4EFB5
:100D2000A50194010E94340ADC01CB018C0D9D1DAC
:100D3000AE1DBF1DB7FF03C00197A109B04888834E
:100D40009983AA83BB839F77DF91CF91FF90EF9028
:100D5000DF90CF90BF90AF909F908F9008950E94AA
:100D60006606089586E091E00E9466060895A0E078
:100D7000B0E08093060190930701A0930801B0931F
:100D8000090108950F931F93CF93DF93009731F4D8
:100D90006115710519F480E090E03AC08B01EC0117
:100DA0006EE070E081E090E00E943409FC01892B44
:100DB00091F380E883830115110571F01387028791
:100DC00081E883838091700590917105892B21F4CE
:100DD000F0937105E09370052097C9F0D187C08723
:100DE0008381826083838091720590917305892B42
:100DF00071F4F0937305E0937205809174059091FE
:100E00007505892B21F4F0937505E0937405CF01E6
:100E1000DF91CF911F910F910895A0E0B0E0E3E141
:100E2000F7E00C94490AAE014B5F5F4FFA01619104
:100E30007191AF0180917205909173050E945307E3
:100E4000E2E00C94650A0F931F93CF93DF93E09138
:100E50007205F0917305238121FF1BC08C01D0E046
:100E6000C0E0F80181918F01609172057091730566
:100E7000DB011896ED91FC911997882331F00995C3
:100E8000892B79F3DFEFCFEFECCF8AE00995892B3F
:100E900019F08FEF9FEF02C08D2F9C2FDF91CF9124
:100EA0001F910F910895ABE0B0E0E9E5F7E00C94F5
:100EB000390A6C017B018A01FC0117821682838149
:100EC00081FFCCC1CE0101963C01F6019381F7016F
:100ED00093FD859193FF81917F01882309F4BAC125
:100EE000853239F493FD859193FF81917F0185329D
:100EF00029F4B60190E00E946D09E7CF912C212CD6
:100F0000312CFFE1F315D8F08B3279F038F48032D0
:100F100079F08332A1F4232D20611DC08D3261F060
:100F2000803369F4232D216016C0832D8260382E12
:100F3000E32DE4603E2E2AC0F32DF8601DC037FC7F
:100F40002DC020ED280F2A3040F08E32B9F436FC47
:100F500081C1232D2064322E19C036FE06C08AE0DE
:100F6000989E200D1124922E11C0EAE02E9E200D95
:100F70001124222EF32DF0623F2E08C08C3621F46E
:100F8000832D8068382E02C0883641F4F70193FD26
:100F9000859193FF81917F018111B3CF982F9F7D20
:100FA0009554933028F40C5F1F4F9FE399830DC035
:100FB000833631F0833771F0833509F059C021C091
:100FC000F801808189830E5F1F4F88248394912CC0
:100FD000530113C02801F2E04F0E511CF801A0800C
:100FE000B18036FE03C0692D70E002C06FEF7FEF65
:100FF000C5010E9462094C018201F32DFF773F2E4B
:1010000016C0280122E0420E511CF801A080B180D8
:1010100036FE03C0692D70E002C06FEF7FEFC5019F
:101020000E9450094C01F32DF0683F2E820133FCE1
:101030001BC0822D90E088169906B0F4B60180E2BC
:1010400090E00E946D092A94F4CFF50137FC859158
:1010500037FE81915F01B60190E00E946D09211079
:101060002A9421E0821A91088114910471F7E8C052
:10107000843611F0893641F5F80137FE07C06081EA
:101080007181828193810C5F1F4F08C060817181E3
:10109000072E000C880B990B0E5F1F4FF32DFF7668
:1010A0003F2E97FF09C090958095709561957F4F71
:1010B0008F4F9F4FF0683F2E2AE030E0A3010E943F
:1010C000A909882E861845C0853731F4232D2F7E37
:1010D000B22E2AE030E025C0932D997FB92E8F36AD
:1010E000C1F018F4883579F0B5C0803719F0883729
:1010F00021F0B0C0E92FE061BE2EB4FE0DC0FB2D83
:10110000F460BF2E09C034FE0AC0292F2660B22E1B
:1011100006C028E030E005C020E130E002C020E158
:1011200032E0F801B7FE07C060817181828193814E
:101130000C5F1F4F06C06081718180E090E00E5F00
:101140001F4FA3010E94A909882E8618FB2DFF7747
:101150003F2E36FE0DC0232D2E7FA22E891458F46B
:1011600034FE0BC032FC09C0832D8E7EA82E05C034
:10117000B82CA32C03C0B82C01C0B92CA4FE0FC0FE
:10118000FE01E80DF11D8081803321F49A2D997EB6
:10119000A92E09C0A2FE06C0B394B39404C08A2D40
:1011A000867809F0B394A3FC11C0A0FE06C0B21467
:1011B00088F4280C922C9B180EC0B21460F4B6016F
:1011C00080E290E00E946D09B394F7CFB21418F456
:1011D0002B1802C0982C212CA4FE10C0B60180E36D
:1011E00090E00E946D09A2FE17C0A1FC03C088E731
:1011F00090E002C088E590E0B6010CC08A2D8678A8
:1012000059F0A1FE02C08BE201C080E2A7FC8DE292
:10121000B60190E00E946D09891438F4B60180E3AC
:1012200090E00E946D099A94F7CF8A94F301E80D3B
:10123000F11D8081B60190E00E946D098110F5CF0B
:10124000222009F442CEB60180E290E00E946D09AE
:101250002A94F6CFF6018681978102C08FEF9FEF27
:101260002B96E2E10C94550A0F931F93CF93DF93D3
:10127000869F8001879F100D969F100D1124C80135
:101280000E944505EC01009729F0A80160E070E09C
:101290000E945B09CE01DF91CF911F910F910895BC
:1012A000FC010590615070400110D8F78095909531
:1012B0008E0F9F1F0895DC0101C06D934150504077
:1012C000E0F70895FC016150704001900110D8F7DB
:1012D000809590958E0F9F1F08950F931F93CF9326
:1012E000DF93FB01238121FD03C08FEF9FEF2CC013
:1012F00022FF16C04681578124813581421753074A
:1013000044F4A081B1819D012F5F3F4F3183208341
:101310008C93268137812F5F3F4F3783268314C0FC
:101320008B01EC01FB010084F185E02D0995892BEF
:10133000E1F6D80116968D919C9117970196179614
:101340009C938E931697CE01DF91CF911F910F91B1
:101350000895FA01AA27283051F1203181F1E8944B
:101360006F936E7F6E5F7F4F8F4F9F4FAF4FB1E098
:101370003ED0B4E03CD0670F781F891F9A1FA11D93
:10138000680F791F8A1F911DA11D6A0F711D811D94
:10139000911DA11D20D009F468943F912AE0269F59
:1013A00011243019305D3193DEF6CF010895462FB8
:1013B0004770405D4193B3E00FD0C9F7F6CF462F99
:1013C0004F70405D4A3318F0495D31FD4052419302
:1013D00002D0A9F7EACFB4E0A695979587957795BF
:1013E0006795BA95C9F700976105710508959B0146
:1013F000AC010A2E06945795479537952795BA95CF
:10140000C9F7620F731F841F951FA01D0895052E35
:1014100097FB1EF400940E941E0A57FD07D00E94FD
:10142000700A07FC03D04EF40C941E0A50954095A8
:10143000309521953F4F4F4F5F4F08959095809580
:10144000709561957F4F8F4F9F4F08950E94920A2C
:10145000A59F900DB49F900DA49F800D911D112408
:101460000895B7FF0C94260A0E94260A821B930B4C
:1014700008952F923F924F925F926F927F928F9238
:101480009F92AF92BF92CF92DF92EF92FF920F9313
:101490001F93CF93DF93CDB7DEB7CA1BDB0B0FB61D
:1014A000F894DEBF0FBECDBF09942A8839884888DA
:1014B0005F846E847D848C849B84AA84B984C88470
:1014C000DF80EE80FD800C811B81AA81B981CE0F67
:1014D000D11D0FB6F894DEBF0FBECDBFED0108954C
:1014E000A1E21A2EAA1BBB1BFD010DC0AA1FBB1F28
:1014F000EE1FFF1FA217B307E407F50720F0A21B9A
:10150000B30BE40BF50B661F771F881F991F1A9406
:1015100069F760957095809590959B01AC01BD0130
:10152000CF010895A29FB001B39FC001A39F700D8A
:10153000811D1124911DB29F700D811D1124911DDB
:061540000895F894FFCFAE
:1015460000007605200001000000000000000000F9
:101556000000000000000000000000000000000085
:101566000000000000000000000000000000000075
:101576000000000000000000000000000000000065
:101586000000000000000000000000000000000055
:101596000000000000000000000000000000000045
:1015A6000000000000000000000000000000000035
:1015B6000000000000000000000000000000000025
:1015C6000000000000000000000000000000000015
:1015D6000000000000000000000000000000000005
:1015E60000000000000000000000000000000000F5
:1015F60000000000000000000000000000000000E5
:1016060000000000000000000000000000000000D4
:1016160000000000000000000000000000000000C4
:1016260000000000000000000000000000000000B4
:1016360000000000000000000000000000000000A4
:101646000000000000000000000000000000000094
:101656000000000000000000000000000000000084
:101666000000000000000000000000000000000074
:101676000000000000000000000000000000000064
:101686000000000000000000000000000000007CD8
:101696001211127C7F494949363E414141220000E0
:1016A6005E000000000000000000000000000000D6
:1016B6000000000000000000000000000000000024
:1016C6000000000000000000000000000000000014
:1016D6000000000000000000000000000000000004
:1016E60000000000000000000000000000000000F4
:1016F60000000000000000000000000000000000E4
:1017060000000000000000000000000000000000D3
:1017160000000000000000000000000000000000C3
:1017260000000000000000000000000000000000B3
:1017360000000000000000000000000000000000A3
:101746000000000000000000000000000000000093
:101756000000000000000000000000000000000083
:101766000000000000000000000000000000000073
:101776000000000000000000000000000000000063
:101786000000000000000000000000000000000053
:101796000000000000000000000000000000000043
:1017A6000000000000000000000000000000000033
:1017B6000000000000000000000000000000000023
:1017C6000000000000000000000000000000000013
:1017D6000000000000000000000000000000000003
:1017E60000000000000000000000000000000000F3
:1017F60000000000000000000000000000000000E3
:1018060000000000000000000000000000000000D2
:1018160000000000000000000000000000000000C2
:1018260000000000000000000000000000000000B2
:1018360000000000000000000000000000000000A2
:101846000000000000000000000000000000000092
:101856000000000000000000000000000000000082
:101866000000000000000000000000000000000072
:1018760000000000000000000000000000005465A9
:101886007374004661696C656420746F20696E69C3
:101896007469616C697A6520414443004661696CEC
:1018A600656420746F20696E697469616C697A6514
:1018B6002065787465726E616C206D656D6F7279E6
:1018C600005374617274696E67205352414D2074DF
:1018D6006573742E2E2E00577269746520706861C8
:1018E6007365206572726F723A206578745F7261F3
:1018F6006D5B2534645D203D2025303258202873E9
:10190600686F756C642062652025303258290A0D8F
:101916000052657472696576616C207068617365E2
:10192600206572726F723A206578745F72616D5BC2
:101936002534645D203D2025303258202873686F99
:10194600756C642062652025303258290A0D0053D3
:1019560052414D207465737420636F6D706C6574AD
:1019660065642077697468200A0D253464206572E1
:10197600726F727320696E20777269746520706861
:1019860061736520616E64200A0D253464206572DA
:10199600726F727320696E20726574726965766102
:0C19A6006C2070686173650A0A0D000077
:00000001FF
