:100000000C9460030C947D030C947D030C947D038D
:100010000C947D030C947D030C947D030C947D0360
:100020000C947D030C947D030C947D030C947D0350
:100030000C947D030C947D030C947D030C947D0340
:100040000C947D030C947D030C947D030C947D0330
:100050000C947D030C947D030C947D030C947D0320
:100060000C947D030C947D030C947D030C947D0310
:1000700000000000005C00000C000C007C287C28C4
:1000800058DC68002410480028542840000C000068
:10009000007884008478000054385400107C1000EC
:1000A00080400000101010000040000060100C00A4
:1000B00038543800487C40004864580044542C00B0
:1000C0001C107C005C5424003854240064140C0080
:1000D00068542C0048543800004800008048000054
:1000E0001028440028282800442810000454080040
:1000F00038445C00781478007C5428003844280088
:100100007C4438007C5444007C140400384474005F
:100110007C107C00447C440020403C007C106C003F
:100120007C4040007C187C0078103C00384438004B
:100130007C1408003844B8007C146800485424003B
:10014000047C04007C407C003C603C007C307C00F3
:100150006C106C000C700C0064544C00007C44006B
:100160000C106000447C00000804080080808000BF
:1001700000040800304878007C48300030484800CF
:1001800030487C00306850001078140090A8780047
:100190007C08700050744000808074007C106800FF
:1001A000447C4000781078007808700030483000B7
:1001B000F82810003048F80078100800505828003F
:1001C000083C4800384078003840380078207800F3
:1001D0004830480098A0780048685800107884009B
:1001E000007C00008478100008040804000000006F
:1001F0000000005F00000007000700147F147F1458
:10020000242A7F2A1223130864623649552250009B
:1002100005030000001C2241000041221C00082AA6
:100220001C2A0808083E080800503000000808088A
:100230000808006060000020100804023E51494593
:100240003E00427F400042615149462141454B31C9
:100250001814127F1027454545393C4A4949300159
:10026000710905033649494936064949291E0036B0
:100270003600000056360000000814224114141401
:10028000141441221408000201510906324979412F
:100290003E7E1111117E7F494949363E414141223E
:1002A0007F4141221C7F494949417F090901013EA3
:1002B000414151327F0808087F00417F41002040C2
:1002C000413F017F081422417F404040407F0204AB
:1002D000027F7F0408107F3E4141413E7F090909AA
:1002E000063E4151215E7F09192946464949493157
:1002F00001017F01013F4040403F1F2040201F7F00
:100300002018207F631408146303047804036151E8
:1003100049454300007F4141020408102041417FCC
:100320000000040201020440404040400001020479
:100330000020545454787F4844443838444444207E
:10034000384444487F3854545418087E0901020840
:100350001454543C7F0804047800447D400020403D
:10036000443D00007F10284400417F40007C041879
:1003700004787C0804047838444444387C14141409
:1003800008081414187C7C080404084854545420A9
:10039000043F4440203C4040207C1C2040201C3C2A
:1003A0004030403C44281028440C5050503C446499
:1003B000544C44000836410000007F0000004136E4
:1003C000080002010302010000000000000000001C
:1003D000065F5F0600000000070700070700001423
:1003E0007F7F147F7F1400242E6B6B3A120000462F
:1003F0006630180C666200307A4F5D377A48000428
:1004000007030000000000001C3E634100000000E4
:1004100041633E1C000000082A3E1C1C3E2A0808BE
:10042000083E3E0808000000A0E060000000000850
:100430000808080808000000006060000000006074
:1004400030180C060301003E7F594D7F3E000042EC
:10045000427F7F40400000627359496F660000226E
:100460006349497F360000181C16137F7F10002750
:100470006745457D3900003C7E4B497930000003DB
:100480006371190F070000367F49497F3600000667
:100490004F49693F1E000000006C6C000000000026
:1004A000A0EC6C00000000081C3663410000001442
:1004B00014141414140000004163361C08000002D8
:1004C0000351590F0600003E7F415D5D1F1E007CF9
:1004D0007E13137E7C0000417F7F49497F36001CDC
:1004E0003E634141632200417F7F41637F1C0041A5
:1004F0007F7F495D416300417F7F491D0103001CEF
:100500003E6341517372007F7F08087F7F000000C7
:10051000417F7F41000000307040417F3F0100413A
:100520007F7F081C776300417F7F41406070007FC0
:100530007F060C067F7F007F7F060C187F7F001CE4
:100540003E6341633E1C00417F7F49090F06001E48
:100550003F21717F5E0000417F7F19396F46002681
:10056000674D597B32000003417F7F410300007FCC
:100570007F40407F7F00001F3F60603F1F00007F83
:100580007F3018307F7F0063771C081C776300077B
:100590004F78784F0700006773594D47637100002B
:1005A0007F7F41410000000103060C18306000000D
:1005B00041417F7F000000080C0603060C08008004
:1005C000808080808080800000030704000000207D
:1005D0007454543C784000413F7F44447C38003898
:1005E0007C44446C280000307848493F7F40003804
:1005F0007C54545C180000487E7F49030200009838
:10060000BCA4A4F87C0400417F7F08047C7800002F
:10061000447D7D4000000040C484FD7D0000004119
:100620007F7F10386C440000417F7F400000007CD9
:100630007C0C180C7C78007C7C04047C78000038EE
:100640007C44447C38000084FCF8A4243C18001846
:100650003C24A4F8FC8400447C78441C1800004826
:100660005C54547424000000043E7F442400003C89
:100670007C40403C7C40001C3C60603C1C00003CDA
:100680007C6030607C3C00446C3810386C44009CCA
:10069000BCA0A0FC7C00004C64745C4C64000008AE
:1006A000083E7741410000000000777700000041DC
:1006B00041773E0808000002030103020301000025
:1006C00011241FBECFEFD4E0DEBFCDBF12E0A0E00B
:1006D000B1E0E0EAF0E202C005900D92A038B10767
:1006E000D9F722E0A0E8B2E001C01D92AC38B20711
:1006F000E1F70E947F030C944E100C940000CF93FE
:10070000DF93CDB7DEB762970FB6F894DEBF0FBEAA
:10071000CDBF8FE190E00E9401048AE091E00E9449
:10072000D00C0E94A404892B41F08FE091E09F93AC
:100730008F930E94BA0C0F900F900E949304892B04
:1007400041F088E291E09F938F930E94BA0C0F9042
:100750000F900E9410040E946E060E94A2060E9442
:100760007C0888E090E00E94F20A28E0FC011192E7
:100770002A95E9F7AE01425F5F4FBE01695F7F4F87
:10078000CE0101960E94F4058D81813031F4809173
:100790008002909181020E9402070E94BE048C0197
:1007A000FC0180819181823391056CF085E70E9484
:1007B000B508FFEF2FEF82E0F15020408040E1F7D5
:1007C00000C000C00FC08F3C9F4F64F484E60E94BD
:1007D000B508FFEF2FEF82E0F15020408040E1F7B5
:1007E00000C000C0C8010E948A0BC4CF5F9BFECF2F
:1007F0008CB190E008955D9BFECF8CB980E090E0D5
:10080000089589B990BD88E18AB98EE880BD66EF08
:1008100073E08BEF93E00E946F0C80E090E008950E
:10082000CF92DF92EF92FF920F931F93CF93DF93BC
:100830008DE491E00E94D00C0E945F0C7C010E942C
:10084000640CC12CD12C00E010E0C3E6D1E00E9482
:100850005F0CF601F85E808320812817A9F09927A4
:100860009F938F931F922F93DF92CF92DF93CF931B
:100870000E94BA0C0F5F1F4F8DB79EB708960FB638
:10088000F8949EBF0FBE8DBF9FEFC91AD90AC1143D
:1008900088E0D806E1F6C7010E94640CC0E0D0E011
:1008A000E12CF12C0F2EFDE9CF2EF1E0DF2EF02D03
:1008B0000E945F0CFE01F85E20812817B1F0992795
:1008C0009F938F931F922F93DF93CF93DF92CF92BB
:1008D0000E94BA0C9FEFE91AF90A8DB79EB70896E5
:1008E0000FB6F8949EBF0FBE8DBF2196C11598E03C
:1008F000D907F1F6FF92EF921F930F938BED91E0E2
:100900009F938F930E94BA0C0F900F900F900F90AF
:100910000F900F90DF91CF911F910F91FF90EF906B
:10092000DF90CF90089585B7806885BF80B78062DB
:1009300080BF80E090E00895985EFC016083089598
:10094000985EFC01808108958D9A8FB580648FBD7B
:100950008FB581608FBD8FB582608FBD8EB5886089
:100960008EBD8EB580618EBD81E090E09BBD8ABD5D
:100970008EB581608EBD80E090E008955F926F92A9
:100980007F928F929F92AF92BF92CF92DF92EF921F
:10099000FF920F931F93CF93DF9384E090E00E9428
:1009A000F20A5C0184E0F50111928A95E9F781E091
:1009B00090E00E9481061092001080E090EF019775
:1009C000F1F78501EE24E394F12CC0E0D0E0C12CD6
:1009D0006894DD24D4F80F2EFCE96F2EF02D7724D7
:1009E0007A940F2EF4E68F2EF02D912C0F2EF4E634
:1009F0005F2EF02D06C021969FEFE91AF90A0E5FCF
:100A00001F4FF601608170E0C130D105A9F56E3944
:100A10007105CCF4CB018E599109589EB001599EB5
:100A2000700D1124072E000C880B990B0E94F909F8
:100A300020E030E04EEA52EC0E944F090E94C109CA
:100A4000362F272FAAC06E597109072E000C880B6C
:100A5000990B0E94F90920E030E044EA52E40E9438
:100A60004F0920E030E048EC52EC0E94850A0E94D9
:100A7000C109362F272F91C0209709F041C06E3948
:100A800071052CF56E597109072E000C880B990B16
:100A90000E94F90920E030E04EE153EC0E944F093A
:100AA00020E030E048EC52E40E94850A20E030E08B
:100AB0004CE552E40E944F0920E030E048EC52E45B
:100AC0000E94850A0E94C109362F272F66C06E59E1
:100AD0007109072E000C880B990B0E94F90920E080
:100AE00030E04AEA52E40E944F0920E030E048EC4E
:100AF00052EC0E94850A0E94C109362F272F4DC053
:100B00006D397105CCF46D597109072E000C880BF5
:100B1000990B0E94F90920E030E04DE153EC0E946E
:100B20004F0920E030E048EC52E40E94850A0E9420
:100B3000C109362F272F18C06D597109072E000CD7
:100B4000880B990B0E94F90920E030E044EC52E454
:100B50000E944F0920E030E048EC52EC0E94850AE8
:100B60000E94C109362F272F832F922F853691059A
:100B700014F0882D992D8C39FFEF9F0714F4862DE2
:100B8000972D919581959109F80191838083F4E0E7
:100B9000EF16F1040CF42FCF14C0832F922F85365B
:100BA000910514F0882D992D8C392FEF920714F4AC
:100BB000862D972D919581959109F80191838083D8
:100BC0001ACF0E948C06C501DF91CF911F910F9122
:100BD000FF90EF90DF90CF90BF90AF909F908F905D
:100BE0007F906F905F900895BF92CF92DF92EF92C7
:100BF000FF920F931F93CF93DF93B82EC92ED62E5B
:100C0000E72E142FD52F82E090E00E94810684E029
:100C10000E947C0681E48A95F1F700C080E00E9482
:100C20007C06F82E83E08A95F1F7000080E00E94B0
:100C30007C06082F83E08A95F1F7000080E00E948F
:100C40007C06C82F0E948C06EB2DFC2D20E030E0A6
:100C50008F2D90E0AC01022E02C0559547950A9465
:100C6000E2F7417041932F5F3F4F2630310591F7F6
:100C7000ED2DFE2D20E030E0802F90E0AC01022E23
:100C800002C0559547950A94E2F7417041932F5F52
:100C90003F4F2730310591F7E12FFD2F20E030E065
:100CA000D0E0AE01022E02C0559547950A94E2F7B6
:100CB000417041932F5F3F4F2530310591F7DF9110
:100CC000CF911F910F91FF90EF90DF90CF90BF9049
:100CD000089586B383FB882780F9089587B3806BD6
:100CE00087BB81B38C6181BBBB98C39A81E58DB909
:100CF00082B3886182BB08958FB9779BFECF8FB195
:100D000008958130910519F4939A94980895029763
:100D100011F4949A9398089582B3886182BB0895E0
:100D2000CF93C82F611102C0929A01C0929881E0BE
:100D300090E00E9481068C2F0E947C060E948C0607
:100D4000CF910895CF93DF9361E08EEA0E949006E1
:100D500061E081EA0E94900661E088EC0E949006C2
:100D6000D0E061E082E20E94900661E08D2F0E9457
:100D7000900661E08D2F0E94900661E081E20E9462
:100D8000900661E080E00E94900661E08FE70E949B
:100D90009006C0E060E080E00E949006CF5FC0381F
:100DA000C9F7DF5FD830E9F661E08FEA0E9490066C
:100DB000DF91CF910895CF938770C82FC06B61E00A
:100DC0008C2F0E94900661E08C2F0E949006CF919C
:100DD0000895CF93C82FCF7761E08F700E9490065F
:100DE0008C2F82958F7061E080610E949006CF9178
:100DF0000895CF93C62F0E94DB068C2F0E94E90630
:100E0000CF910895CF93DF93D82FC0E06C2F8D2F13
:100E10000E94F90660E080E00E949006CF5FCF3725
:100E2000A9F7DF91CF910895CF93C0E08C2F0E9456
:100E30000207CF5FC830D1F7CF9108956F927F92AC
:100E40008F929F92AF92BF92CF92DF92EF92FF92DA
:100E50000F931F93CF93DF93782E962E042F822E1D
:100E600040320CF40FE3692D872D0E94F90660E0F3
:100E700080E00E94900683E7881609F436C08CE66D
:100E8000881609F437C00F2EF5E0EF2EF12CF02D67
:100E900035C083E7881207C0F601EC0FFD1FE0594B
:100EA000FF4F649010C08CE6881207C0F501EC0F6C
:100EB000FD1FE953FC4F649006C0F801EC0FFD1FC5
:100EC000E451FE4F6490692D872D0E94F90660E081
:100ED000862D0E94900621969394CE15DF05CCF2C4
:100EE00060E080E00E94900624C06894EE24E2F85E
:100EF000F12C04C06894EE24E3F8F12C9394002EB6
:100F0000000C110B6801CC0CDD1CCC0CDD1C580155
:100F1000AA0CBB1CAA0CBB1CAA0CBB1C0C0D1D1DD7
:100F2000C0E0D0E0005A1109BA9480E8C81AD1088C
:100F3000B0CFDF91CF911F910F91FF90EF90DF9095
:100F4000CF90BF90AF909F908F907F906F900895BB
:100F50005F926F927F928F929F92AF92BF92CF9249
:100F6000DF92EF92FF920F931F93CF93DF93682E40
:100F70006A01822E23E7821631F08CE6881631F062
:100F800085E090E005C084E090E002C088E090E059
:100F900076015C01EFEFAE1ABE0A7A2C962EC0E005
:100FA000D0E000E010E055245394560C25C0CE3715
:100FB000D10544F0282DF7014081692D852D0E942F
:100FC0001E0712C0CB3FD10544F0282DF701408108
:100FD000692D862D0E941E0707C0282DF70140812C
:100FE000692D862D0E941E070F5F1F4FFFEFEF1A1E
:100FF000FF0A970CCA0DDB1DF60101900020E9F7EE
:101000003197EC19FD090E171F0788F2DF91CF9178
:101010001F910F91FF90EF90DF90CF90BF90AF9016
:101020009F908F907F906F905F900895CF93C82F7F
:1010300063E70E94F90660E088E10E94900664E799
:101040008C2F0E94F90660E08CE30E94900665E711
:101050008C2F0E94F90660E08CE30E94900666E700
:101060008C2F0E94F90660E08EE70E94900667E7E9
:101070008C2F0E94F90660E08EE70E94900668E7D8
:101080008C2F0E94F90660E08FEF0E949006CF91AE
:101090000895CF93C82F63E70E94F90660E080E0CF
:1010A0000E94900664E78C2F0E94F90660E080E0C1
:1010B0000E94900665E78C2F0E94F90660E080E0B0
:1010C0000E94900666E78C2F0E94F90660E080E09F
:1010D0000E94900667E78C2F0E94F90660E080E08E
:1010E0000E94900668E78C2F0E94F90660E080E07D
:1010F0000E949006CF9108950E9414072DE647E3C1
:1011000052E060E080E00E94A80723E741E452E05B
:1011100068E082E00E94A80723E74CE452E068E020
:1011200083E00E94A80723E746E552E068E084E0F8
:101130000E94A80723E74EE552E068E085E00E94A0
:10114000A80723E74AE652E060E087E00E94A8078C
:1011500082E090E0909381028093800280918002EF
:10116000909181020E94160808952091800230918A
:1011700081022230310571F5853799F48091800222
:10118000909181020E94490885E090E0909381024D
:101190008093800280918002909181020E941608C3
:1011A0000895843609F07AC080918002909181027E
:1011B0000E9449088091800290918102019690934B
:1011C00081028093800280918002909181020E942E
:1011D0001608089520918002309181022530310552
:1011E00071F58537B1F480918002909181020E945F
:1011F0004908809180029091810201979093810229
:101200008093800280918002909181020E94160852
:101210000895843609F042C0809180029091810245
:101220000E94490882E090E09093810280938002BE
:1012300080918002909181020E9416080895843660
:10124000B1F480918002909181020E9449088091BE
:101250008002909181020196909381028093800296
:1012600080918002909181020E941608089585372E
:10127000A9F480918002909181020E944908809196
:101280008002909181020197909381028093800265
:1012900080918002909181020E94160808950E9418
:1012A00063090C944B0A0E94440A58F00E943D0ABC
:1012B00040F029F45F3F29F00C94340A51110C944A
:1012C0007F0A0C943A0A0E945C0A68F39923B1F3EE
:1012D000552391F3951B550BBB27AA27621773075C
:1012E000840738F09F5F5F4F220F331F441FAA1FF0
:1012F000A9F335D00E2E3AF0E0E832D091505040AC
:10130000E695001CCAF72BD0FE2F29D0660F771F59
:10131000881FBB1F261737074807AB07B0E809F03F
:10132000BB0B802DBF01FF2793585F4F3AF09E3FC4
:10133000510578F00C94340A0C947F0A5F3FE4F373
:10134000983ED4F3869577956795B795F7959F5F07
:10135000C9F7880F911D9695879597F90895E1E053
:10136000660F771F881FBB1F621773078407BA07B2
:1013700020F0621B730B840BBA0BEE1F88F7E0950D
:1013800008950E94C8096894B1110C947F0A0895C9
:101390000E94640A88F09F5798F0B92F9927B75197
:1013A000B0F0E1F0660F771F881F991F1AF0BA9509
:1013B000C9F714C0B13091F00E947E0AB1E00895DF
:1013C0000C947E0A672F782F8827B85F39F0B93FD1
:1013D000CCF3869577956795B395D9F73EF49095BC
:1013E0008095709561957F4F8F4F9F4F0895E8943A
:1013F00009C097FB3EF490958095709561957F4F5D
:101400008F4F9F4F9923A9F0F92F96E9BB2793950A
:10141000F695879577956795B795F111F8CFFAF41A
:10142000BB0F11F460FF1BC06F5F7F4F8F4F9F4F4B
:1014300016C0882311F096E911C0772321F09EE8A9
:10144000872F762F05C0662371F096E8862F70E00F
:1014500060E02AF09A95660F771F881FDAF7880FE9
:101460009695879597F9089597F99F6780E870E0BA
:1014700060E008959FEF80EC089500240A9416160A
:10148000170618060906089500240A941216130672
:10149000140605060895092E0394000C11F4882300
:1014A00052F0BB0F40F4BF2B11F460FF04C06F5F1C
:1014B0007F4F8F4F9F4F089557FD9058440F551FF2
:1014C00059F05F3F71F04795880F97FB991F61F0C6
:1014D0009F3F79F087950895121613061406551F3D
:1014E000F2CF4695F1DF08C0161617061806991FA9
:1014F000F1CF86957105610508940895E894BB279E
:1015000066277727CB0197F908950E94980A0C94D3
:101510004B0A0E943D0A38F00E94440A20F09523AD
:1015200011F00C94340A0C943A0A11240C947F0A9A
:101530000E945C0A70F3959FC1F3950F50E0551F10
:10154000629FF001729FBB27F00DB11D639FAA2718
:10155000F00DB11DAA1F649F6627B00DA11D661F67
:10156000829F2227B00DA11D621F739FB00DA11D88
:10157000621F839FA00D611D221F749F3327A00D42
:10158000611D231F849F600D211D822F762F6A2FDE
:1015900011249F5750409AF0F1F088234AF0EE0F43
:1015A000FF1FBB1F661F771F881F91505040A9F770
:1015B0009E3F510580F00C94340A0C947F0A5F3FE3
:1015C000E4F3983ED4F3869577956795B795F795AC
:1015D000E7959F5FC1F7FE2B880F911D9695879524
:1015E00097F908950F931F93CF93DF93823091055E
:1015F00010F482E090E0E0918402F091850220E016
:1016000030E0A0E0B0E0309719F1408151810281D3
:10161000138148175907C8F08417950769F4109784
:1016200031F012960C93129713961C9327C00093D7
:1016300084021093850222C02115310519F042174A
:10164000530718F49A01BD01EF01DF01F801DBCF68
:1016500021153105F9F0281B390B2430310580F4B0
:101660008A819B816115710521F0FB01938382833F
:1016700004C09093850280938402FE01329644C098
:10168000FE01E20FF31F81939193225031093983B8
:1016900028833AC02091820230918302232B41F4A7
:1016A0002091020130910301309383022093820242
:1016B00020910001309101012115310541F42DB730
:1016C0003EB74091040150910501241B350BE09178
:1016D0008202F0918302E217F307A0F42E1B3F0B66
:1016E0002817390778F0AC014E5F5F4F2417350794
:1016F00048F04E0F5F1F5093830240938202819304
:10170000919302C0E0E0F0E0CF01DF91CF911F9113
:101710000F910895CF93DF93009709F481C0FC01E6
:10172000329713821282A0918402B09185021097A1
:1017300081F420813181820F931F209182023091A8
:1017400083022817390751F5F0938302E093820250
:1017500067C0ED0120E030E0CE17DF0740F44A819A
:101760005B819E0141155105F1F0EA01F5CFD3836C
:10177000C28340815181840F951FC817D90759F43E
:1017800088819981840F951F0296918380838A8135
:101790009B81938382832115310529F4F09385027F
:1017A000E09384023DC0E901FB83EA8349915991AA
:1017B000C40FD51FEC17FD0761F480819181840F60
:1017C000951F0296E90199838883828193819B8387
:1017D0008A83E0E0F0E012968D919C911397009738
:1017E00019F0FD01DC01F7CF8D919C9111979D01BE
:1017F0002E5F3F4F820F931F209182023091830210
:101800002817390769F4309729F41092850210924D
:10181000840202C013821282B0938302A0938202D8
:10182000DF91CF9108958F929F92AF92BF92CF9206
:10183000DF92EF92FF92CF93DF93EC016881798181
:101840008A819B81611571058105910521F464E20E
:1018500079ED8BE597E02DE133EF41E050E00E9418
:10186000B40F49015A019B01AC01A7EAB1E40E94FF
:10187000D30F6B017C01ACEEB4EFA50194010E9483
:10188000E10FDC01CB018C0D9D1DAE1DBF1DB7FF0F
:1018900003C00197A109B04888839983AA83BB83B9
:1018A0009F77DF91CF91FF90EF90DF90CF90BF9027
:1018B000AF909F908F9008950E94130C089586E03A
:1018C00091E00E94130C0895A0E0B0E0809306011F
:1018D00090930701A0930801B093090108950F9315
:1018E0001F93CF93DF93009731F46115710519F4BD
:1018F00080E090E03AC08B01EC016EE070E081E0A6
:1019000090E00E94E10EFC01892B91F380E8838333
:101910000115110571F01387028781E88383809197
:10192000860290918702892B21F4F0938702E0933D
:1019300086022097C9F0D187C08783818260838324
:101940008091880290918902892B71F4F093890229
:10195000E093880280918A0290918B02892B21F476
:10196000F0938B02E0938A02CF01DF91CF911F9118
:101970000F910895A0E0B0E0E0ECFCE00C94F60FCD
:10198000AE014B5F5F4FFA0161917191AF018091A0
:101990008802909189020E94000DE2E00C941210DE
:1019A0000F931F93CF93DF93E0918802F091890208
:1019B000238121FF1BC08C01D0E0C0E0F8018191A0
:1019C0008F016091880270918902DB011896ED9178
:1019D000FC911997882331F00995892B79F3DFEF72
:1019E000CFEFECCF8AE00995892B19F08FEF9FEFAD
:1019F00002C08D2F9C2FDF91CF911F910F910895E1
:101A0000ABE0B0E0E6E0FDE00C94E60F6C017B019A
:101A10008A01FC0117821682838181FFCCC1CE012D
:101A200001963C01F6019381F70193FD859193FFA7
:101A300081917F01882309F4BAC1853239F493FD7D
:101A4000859193FF81917F01853229F4B60190E061
:101A50000E941A0FE7CF912C212C312CFFE1F315B6
:101A6000D8F08B3279F038F4803279F08332A1F4F7
:101A7000232D20611DC08D3261F0803369F4232D48
:101A8000216016C0832D8260382EE32DE4603E2E47
:101A90002AC0F32DF8601DC037FC2DC020ED280FA3
:101AA0002A3040F08E32B9F436FC81C1232D2064F7
:101AB000322E19C036FE06C08AE0989E200D1124F1
:101AC000922E11C0EAE02E9E200D1124222EF32D1D
:101AD000F0623F2E08C08C3621F4832D8068382EAA
:101AE00002C0883641F4F70193FD859193FF8191FF
:101AF0007F018111B3CF982F9F7D9554933028F4A7
:101B00000C5F1F4F9FE399830DC0833631F08337FD
:101B100071F0833509F059C021C0F80180818983B3
:101B20000E5F1F4F88248394912C530113C028010A
:101B3000F2E04F0E511CF801A080B18036FE03C0C8
:101B4000692D70E002C06FEF7FEFC5010E940F0F9B
:101B50004C018201F32DFF773F2E16C0280122E0B1
:101B6000420E511CF801A080B18036FE03C0692DE1
:101B700070E002C06FEF7FEFC5010E94FD0E4C01C7
:101B8000F32DF0683F2E820133FC1BC0822D90E0C4
:101B900088169906B0F4B60180E290E00E941A0F10
:101BA0002A94F4CFF50137FC859137FE81915F01CE
:101BB000B60190E00E941A0F21102A9421E0821AA7
:101BC00091088114910471F7E8C0843611F08936C8
:101BD00041F5F80137FE07C06081718182819381F0
:101BE0000C5F1F4F08C060817181072E000C880BAD
:101BF000990B0E5F1F4FF32DFF763F2E97FF09C005
:101C000090958095709561957F4F8F4F9F4FF068AD
:101C10003F2E2AE030E0A3010E94560F882E86183E
:101C200045C0853731F4232D2F7EB22E2AE030E0D7
:101C300025C0932D997FB92E8F36C1F018F48835C1
:101C400079F0B5C0803719F0883721F0B0C0E92F9E
:101C5000E061BE2EB4FE0DC0FB2DF460BF2E09C0A6
:101C600034FE0AC0292F2660B22E06C028E030E0DC
:101C700005C020E130E002C020E132E0F801B7FE0B
:101C800007C060817181828193810C5F1F4F06C004
:101C90006081718180E090E00E5F1F4FA3010E9480
:101CA000560F882E8618FB2DFF773F2E36FE0DC06F
:101CB000232D2E7FA22E891458F434FE0BC032FC43
:101CC00009C0832D8E7EA82E05C0B82CA32C03C07E
:101CD000B82C01C0B92CA4FE0FC0FE01E80DF11D07
:101CE0008081803321F49A2D997EA92E09C0A2FE0D
:101CF00006C0B394B39404C08A2D867809F0B394D7
:101D0000A3FC11C0A0FE06C0B21488F4280C922CCB
:101D10009B180EC0B21460F4B60180E290E00E94FD
:101D20001A0FB394F7CFB21418F42B1802C0982CE2
:101D3000212CA4FE10C0B60180E390E00E941A0F8F
:101D4000A2FE17C0A1FC03C088E790E002C088E5AE
:101D500090E0B6010CC08A2D867859F0A1FE02C031
:101D60008BE201C080E2A7FC8DE2B60190E00E9408
:101D70001A0F891438F4B60180E390E00E941A0F1C
:101D80009A94F7CF8A94F301E80DF11D8081B60192
:101D900090E00E941A0F8110F5CF222009F442CE64
:101DA000B60180E290E00E941A0F2A94F6CFF60165
:101DB0008681978102C08FEF9FEF2B96E2E10C9412
:101DC00002100F931F93CF93DF93869F8001879F0D
:101DD000100D969F100D1124C8010E94F20AEC010B
:101DE000009729F0A80160E070E00E94080FCE0182
:101DF000DF91CF911F910F910895FC0105906150E3
:101E000070400110D8F7809590958E0F9F1F089510
:101E1000DC0101C06D9341505040E0F70895FC0192
:101E20006150704001900110D8F7809590958E0F09
:101E30009F1F08950F931F93CF93DF93FB0123817F
:101E400021FD03C08FEF9FEF2CC022FF16C04681FB
:101E50005781248135814217530744F4A081B18111
:101E60009D012F5F3F4F318320838C9326813781E3
:101E70002F5F3F4F3783268314C08B01EC01FB019A
:101E80000084F185E02D0995892BE1F6D80116969D
:101E90008D919C911797019617969C938E93169708
:101EA000CE01DF91CF911F910F910895FA01AA27DA
:101EB000283051F1203181F1E8946F936E7F6E5F8D
:101EC0007F4F8F4F9F4FAF4FB1E03ED0B4E03CD03B
:101ED000670F781F891F9A1FA11D680F791F8A1F1E
:101EE000911DA11D6A0F711D811D911DA11D20D085
:101EF00009F468943F912AE0269F11243019305D3F
:101F00003193DEF6CF010895462F4770405D41932F
:101F1000B3E00FD0C9F7F6CF462F4F70405D4A337C
:101F200018F0495D31FD4052419302D0A9F7EACF44
:101F3000B4E0A6959795879577956795BA95C9F773
:101F400000976105710508959B01AC010A2E069466
:101F50005795479537952795BA95C9F7620F731F1F
:101F6000841F951FA01D0895052E97FB1EF4009455
:101F70000E94CB0F57FD07D00E941D1007FC03D015
:101F80004EF40C94CB0F50954095309521953F4FD2
:101F90004F4F5F4F089590958095709561957F4F55
:101FA0008F4F9F4F08950E943F10A59F900DB49FA3
:101FB000900DA49F800D911D11240895B7FF0C94DE
:101FC000D30F0E94D30F821B930B08952F923F9241
:101FD0004F925F926F927F928F929F92AF92BF9239
:101FE000CF92DF92EF92FF920F931F93CF93DF93E5
:101FF000CDB7DEB7CA1BDB0B0FB6F894DEBF0FBE42
:10200000CDBF09942A88398848885F846E847D848E
:102010008C849B84AA84B984C884DF80EE80FD8090
:102020000C811B81AA81B981CE0FD11D0FB6F89406
:10203000DEBF0FBECDBFED010895A1E21A2EAA1B8F
:10204000BB1BFD010DC0AA1FBB1FEE1FFF1FA21768
:10205000B307E407F50720F0A21BB30BE40BF50B65
:10206000661F771F881F991F1A9469F760957095EE
:10207000809590959B01AC01BD01CF010895A29F71
:10208000B001B39FC001A39F700D811D1124911D4C
:10209000B29F700D811D1124911D0895F894FFCFFA
:1020A00000008C022000010000005465737400469B
:1020B00061696C656420746F20696E697469616C14
:1020C000697A6520414443004661696C6564207407
:1020D0006F20696E697469616C697A6520657874CE
:1020E00065726E616C206D656D6F727900537461FD
:1020F0007274696E67205352414D20746573742E5B
:102100002E2E0057726974652070686173652065B2
:1021100072726F723A206578745F72616D5B2534FC
:10212000645D203D2025303258202873686F756C1F
:10213000642062652025303258290A0D00526574EA
:1021400072696576616C2070686173652065727272
:102150006F723A206578745F72616D5B2534645DDF
:10216000203D2025303258202873686F756C64201C
:1021700062652025303258290A0D005352414D2006
:102180007465737420636F6D706C6574656420771B
:10219000697468200A0D253464206572726F727349
:1021A00020696E207772697465207068617365209C
:1021B000616E64200A0D253464206572726F72733B
:1021C00020696E2072657472696576616C20706832
:1021D0006173650A0A0D004D61696E206D656E754B
:1021E0000053746172742067616D650048696768A7
:1021F00073636F7265004F7074696F6E7300506C1B
:10220000616365686F6C64657200437265646974CC
:10221000733A204541412C20544D532C2052460006
:00000001FF
