:100000000C9438000C9442000C9442000C94420072
:100010000C9442000C9442000C9442000C94420058
:100020000C9442000C9442000C9442000C94420048
:100030000C9442000C9442000C9442000C94420038
:100040000C9442000C9442000C9442000C94420028
:100050000C9442000C9442000C9442000C94420018
:100060000C9442000C9442000C9442000C94420008
:1000700011241FBECFEFD4E0DEBFCDBF0E944400ED
:100080000C945B000C94000081E08ABB2AE030E015
:1000900091E08BB389278BBB4FEF5FEF8EE0415030
:1000A00050408040E1F700C000002150310989F73D
:0A00B00080E090E00895F894FFCF7F
:00000001FF
