:100000000C9438000C9455000C9455000C94550039
:100010000C9455000C9455000C9455000C9455000C
:100020000C9455000C9455000C9455000C945500FC
:100030000C9455000C9455000C9455000C945500EC
:100040000C9455000C9455000C9455000C945500DC
:100050000C9455000C9455000C9455000C945500CC
:100060000C9455000C9455000C9455000C945500BC
:1000700011241FBECFEFD4E0DEBFCDBF12E0A0E061
:10008000B1E0EEE0FDE002C005900D92A034B107B2
:10009000D9F722E0A0E4B2E001C01D92AA34B20771
:1000A000E1F70E9457000C9485060C9400008FE144
:1000B00090E00E9494008AE091E00E94FA010E9480
:1000C0003401892BE9F461E58EE398E10E942C016B
:1000D0008EE398E10E9430011F928F931F9281E579
:1000E0008F9384E391E09F938F930E94E4010F909C
:1000F0000F900F900F900F900F9090E080E0089578
:100100008FE091E09F938F930E94E4010F900F90F6
:10011000DACF5F9BFECF8CB190E008955D9BFECF60
:100120008CB990E080E0089589B990BD88E18AB9E2
:100130008EE880BD69E870E08EE890E00E94990149
:1001400090E080E00895CF92DF92EF92FF920F93BC
:100150001F93CF93DF938BE591E00E94FA010E94F9
:1001600089016C010E948E01D0E0C0E010E000E047
:100170000F2EF1E7EF2EF1E0FF2EF02D05C02196B6
:10018000C11598E0D907F1F00E948901FE01F85EDF
:1001900080832081281799F399279F938F931F922B
:1001A0002F93DF93CF93FF92EF920E94E4010F5FB2
:1001B0001F4F8DB79EB708960FB6F8949EBF0FBE1F
:1001C0008DBFDDCFC6010E948E01D0E0C0E0F12CD2
:1001D000E12C0F2EFAEACF2EF1E0DF2EF02D05C034
:1001E0002196C11598E0D907F1F00E948901FE011E
:1001F000F85E20812817A1F399279F938F931F9270
:100200002F93DF93CF93DF92CF920E94E4018FEF81
:10021000E81AF80A8DB79EB708960FB6F8949EBFF5
:100220000FBE8DBFDDCFFF92EF921F930F9387EE2E
:1002300091E09F938F930E94E4010F900F900F9095
:100240000F900F900F90DF91CF911F910F91FF9022
:10025000EF90DF90CF900895985EFC016083089541
:10026000985EFC018081089585B7806885BF80B75E
:10027000806280BF90E080E008958F929F92AF925D
:10028000BF92CF92DF92EF92FF92CF93DF93EC0178
:10029000688179818A819B8161157105810591054C
:1002A00021F464E279ED8BE597E02DE133EF41E055
:1002B00050E00E94EB0549015A019B01AC01A7EAFD
:1002C000B1E40E940A066B017C01ACEEB4EFA5011B
:1002D00094010E941806DC01CB018C0D9D1DAE1D02
:1002E000BF1DB7FF03C00197A109B0488883998358
:1002F000AA83BB839F77DF91CF91FF90EF90DF9030
:10030000CF90BF90AF909F908F9008950E943D0135
:10031000089580E091E00E943D010895B0E0A0E0E2
:100320008093000190930101A0930201B093030117
:1003300008950F931F93CF93DF93009759F461159E
:10034000710541F4F0E0E0E0CF01DF91CF911F9122
:100350000F9108958B01EC016EE070E081E090E078
:100360000E94FF03FC01892B69F380E88383011558
:10037000110571F01387028781E883838091400221
:1003800090914102892B21F4F0934102E0934002C5
:100390002097D1F2D187C087838182608383809147
:1003A000420290914302892B79F6F0934302E09345
:1003B00042028091440290914502892B29F6F093E4
:1003C0004502E0934402C0CFB0E0A0E0EAEEF1E0E5
:1003D0000C942D06AE014B5F5F4FFA016191719154
:1003E000AF0180914202909143020E942502E2E017
:1003F0000C9449060F931F93CF93DF93E091420231
:10040000F09143022381EC0110E000E021FD08C0DF
:100410000FEF1FEF14C00995892B11F00FEF1FEF9D
:1004200089916091420270914302DB011896ED912F
:10043000FC918111F0CF8AE00995892B49F7C80119
:10044000DF91CF911F910F910895ABE0B0E0EBE207
:10045000F2E00C941D067C013B018A01FC0117822D
:100460001682838181FFC8C1CE0101965C01F7012C
:100470009381F30193FD859193FF81913F0188233F
:1004800009F453C1853239F493FD859193FF81912D
:100490003F01853229F4B70190E00E945D05E7CF66
:1004A000912C212C312CFFE1F31538F08B3211F116
:1004B00090F4803209F1833229F137FC3CC020ED01
:1004C000280F2A3050F536FE20C08AE0989E200D75
:1004D0001124922E06C08D3291F0803371F768940A
:1004E00030F8F30193FD859193FF81913F018111D4
:1004F000DACF21C0689431F8689432F8F2CF68946A
:1005000033F8EFCF689434F8ECCFEAE02E9E200D5C
:100510001124222E689435F8E4CF8E3229F436FC6B
:1005200004C1689436F8DDCF8C3619F4689437F836
:10053000D8CF8836B1F2982F9F7D95549330E0F054
:100540008336A1F18337C1F1833509F063C02801F7
:10055000F2E04F0E511CF801C080D180692D70E08F
:1005600036FC02C06FEF7FEFC6010E9440054C01D0
:10057000689437F882010AC00C5F1F4FFFE3F983CC
:1005800088248394912C6501E89437F833FE2DC0BC
:10059000522C8114910471F5552009F468CFB701EC
:1005A00080E290E00E945D055A94F6CFF8018081C8
:1005B00089830E5F1F4FE4CF2801F2E04F0E511CDC
:1005C000F801C080D180692D70E036FC02C06FEF69
:1005D0007FEFC6010E9452054C018201D5CFB701C1
:1005E00080E290E00E945D052A942814190409F025
:1005F000B0F7CECFF60137FC859137FE81916F01C0
:10060000B70190E00E945D0551105A94F1E08F1AF5
:100610009108BFCF843619F0893609F077C0F80108
:1006200037FE6BC060817181828193810C5F1F4FA7
:10063000F32DFF763F2E97FF09C09095809570951A
:1006400061957F4F8F4F9F4F689437F82AE030E0D5
:10065000A5010E948D05C82ECA188C2C432C36FE8D
:100660000CC0E89440F8C91440F434FE05C032FCD4
:1006700003C0F32DFE7E4F2E892C44FE95C0FE0153
:10068000EC0DF11D8081803309F087C0242D297E77
:10069000422E842D8870582E43FC95C040FE8FC09A
:1006A0009C2C821418F42C0C922C981844FE91C0A7
:1006B000B70180E390E00E945D0542FE09C088E733
:1006C00090E041FE02C088E590E0B7010E945D0520
:1006D000C91408F48AC0CA94D12C9FEFC91AD90A48
:1006E000CA0CDB1CF60182916F01B70190E00E94F9
:1006F0005D05AC14BD04B1F74FCF60817181072E49
:10070000000C880B990B0E5F1F4F92CFD32CE894EF
:10071000D4F82AE030E0853739F1232D297FD22E15
:100720008F3601F148F48835A9F0F7018681978169
:100730002B96E2E10C943906803749F08837A9F707
:10074000D4FE02C06894D2F820E130E00DC0689475
:10075000D4F8F6CF34FE03C0822F8660D82E20E175
:1007600032E002C028E030E0F801D7FE0FC060811F
:100770007181828193810C5F1F4FA5010E948D05BD
:10078000C82ECA183D2CE89437F867CF6081718174
:1007900090E080E00E5F1F4FF0CF42FC02C08394D8
:1007A00078CF8394839475CF842D867809F471CFA4
:1007B000F6CFB70180E290E00E945D058394821439
:1007C000C0F3512C73CF522C5818821408F46ECFFA
:1007D000F8CF842D867809F47BCF8BE241FE80E24E
:1007E00047FC8DE2B70190E071CFB70180E390E064
:1007F0000E945D059A946CCF8FEF9FEF99CF0F9376
:100800001F93CF93DF93869F8001879F100D969F44
:10081000100D1124C8010E941B04EC01009729F05F
:10082000A80170E060E00E944B05CE01DF91CF91FE
:100830001F910F9108950F931F93CF93DF938230F1
:10084000910510F482E090E0E0914802F0914902B5
:1008500030E020E0B0E0A0E0309799F421153105B8
:1008600009F44AC0281B390B24303105D8F58A8198
:100870009B816115710589F1FB0193838283FE01E0
:1008800011C0408151810281138148175907E0F05E
:100890004817590799F4109761F012960C93129724
:1008A00013961C933296CF01DF91CF911F910F9138
:1008B00008950093480210934902F4CF21153105A1
:1008C00051F04217530738F0A901DB019A01BD012D
:1008D000DF01F801C1CFEF01F9CF90934902809376
:1008E0004802CDCFFE01E20FF31F81939193225076
:1008F000310939832883D7CF2091460230914702AE
:10090000232B41F4209106013091070130934702D7
:1009100020934602209104013091050121153105F3
:1009200041F42DB73EB74091080150910901241BB5
:10093000350BE0914602F0914702E217F307A0F46D
:100940002E1B3F0B2817390778F0AC014E5F5F4F25
:100950002417350748F04E0F5F1F5093470240930E
:100960004602819391939FCFF0E0E0E09CCFCF933C
:10097000DF930097E9F0FC01329713821282A09175
:100980004802B0914902ED0130E020E01097A1F457
:1009900020813181820F931F2091460230914702BE
:1009A0002817390709F061C0F0934702E093460227
:1009B000DF91CF910895EA01CE17DF07E8F54A816C
:1009C0005B819E0141155105B1F7E901FB83EA8383
:1009D00049915991C40FD51FEC17FD0761F480812F
:1009E00091810296840F951FE90199838883828102
:1009F00093819B838A83F0E0E0E012968D919C9135
:100A000013970097B9F52D913C911197CD0102965E
:100A1000820F931F20914602309147022817390711
:100A200039F6309751F51092490210924802B0936E
:100A30004702A0934602BCCFD383C2834081518139
:100A4000840F951FC817D90761F44E5F5F4F8881E7
:100A50009981480F591F518340838A819B819383D9
:100A600082832115310509F0B0CFF0934902E0935C
:100A700048029ECFFD01DC01C0CF13821282D7CF86
:100A8000FC010590615070400110D8F78095909559
:100A90008E0F9F1F0895DC0101C06D93415050409F
:100AA000E0F70895FC016150704001900110D8F703
:100AB000809590958E0F9F1F08950F931F93CF934E
:100AC000DF93182F092FEB018B8181FD09C01FEFE8
:100AD0000FEF812F902FDF91CF911F910F910895EC
:100AE00082FF14C02E813F818C819D812817390798
:100AF0003CF4E881F981CF010196998388831083C2
:100B00008E819F8101969F838E83E3CFE885F9854F
:100B1000812F0995892BA1F3DACFFA01AA27283072
:100B200051F1203181F1E8946F936E7F6E5F7F4FBA
:100B30008F4F9F4FAF4FB1E03ED0B4E03CD0670F36
:100B4000781F891F9A1FA11D680F791F8A1F911D89
:100B5000A11D6A0F711D811D911DA11D20D009F4D9
:100B600068943F912AE0269F11243019305D31931B
:100B7000DEF6CF010895462F4770405D4193B3E004
:100B80000FD0C9F7F6CF462F4F70405D4A3318F0AB
:100B9000495D31FD4052419302D0A9F7EACFB4E05C
:100BA000A6959795879577956795BA95C9F7009714
:100BB0006105710508959B01AC010A2E06945795B5
:100BC000479537952795BA95C9F7620F731F841F0C
:100BD000951FA01D0895052E97FB1EF400940E94FA
:100BE000020657FD07D00E94540607FC03D04EF4BE
:100BF0000C94020650954095309521953F4F4F4FEC
:100C00005F4F089590958095709561957F4F8F4FB8
:100C10009F4F08950E947606A59F900DB49F900D5A
:100C2000A49F800D911D11240895B7FF0C940A060E
:100C30000E940A06821B930B08952F923F924F92B7
:100C40005F926F927F928F929F92AF92BF92CF925C
:100C5000DF92EF92FF920F931F93CF93DF93CDB765
:100C6000DEB7CA1BDB0B0FB6F894DEBF0FBECDBFDD
:100C700009942A88398848885F846E847D848C84AE
:100C80009B84AA84B984C884DF80EE80FD800C81B7
:100C90001B81AA81B981CE0FD11D0FB6F894DEBF9A
:100CA0000FBECDBFED010895A1E21A2EAA1BBB1BFA
:100CB000FD010DC0AA1FBB1FEE1FFF1FA217B30728
:100CC000E407F50720F0A21BB30BE40BF50B661F3E
:100CD000771F881F991F1A9469F760957095809502
:100CE00090959B01AC01BD01CF010895A29FB00179
:100CF000B39FC001A39F700D811D1124911DB29F50
:0E0D0000700D811D1124911D0895F894FFCFF0
:100D0E000100000000004A02200054657374004682
:100D1E0061696C656420746F20696E697469616CB9
:100D2E00697A652065787465726E616C206D656D8B
:100D3E006F7279004D6573736167652073656E74AC
:100D4E003A2025640A4D6573736167652072656389
:100D5E0065697665643A2025640A0053746172747D
:100D6E00696E67205352414D20746573742E2E2E7A
:100D7E0000577269746520706861736520657272C0
:100D8E006F723A206578745F72616D5B2534645DB5
:100D9E00203D2025303258202873686F756C6420F2
:100DAE0062652025303258290A00526574726965D1
:100DBE0076616C207068617365206572726F723A2D
:100DCE00206578745F72616D5B2534645D203D2013
:100DDE0025303258202873686F756C642062652048
:100DEE0025303258290A005352414D2074657374D0
:100DFE0020636F6D706C657465642077697468200C
:100E0E000A253464206572726F727320696E2077C2
:100E1E007269746520706861736520616E64200A62
:100E2E00253464206572726F727320696E2072654C
:100E3E007472696576616C2070686173650A0A0068
:00000001FF
