:100000000C9438000C9455000C9455000C94550039
:100010000C9455000C9455000C9455000C9455000C
:100020000C9455000C9455000C9455000C945500FC
:100030000C9455000C9455000C9455000C945500EC
:100040000C9455000C9455000C9455000C945500DC
:100050000C9455000C9455000C9455000C945500CC
:100060000C9455000C9455000C9455000C945500BC
:1000700011241FBECFEFD4E0DEBFCDBF12E0A0E061
:10008000B1E0E2ECFDE002C005900D92AC35B107A5
:10009000D9F722E0ACE5B2E001C01D92A636B20766
:1000A000E1F70E9457000C94DF060C9400008FE1EA
:1000B00090E00E94A5008AE091E00E9461030E9406
:1000C0004801892B41F08FE091E09F938F930E942C
:1000D0004B030F900F900E943701892B41F088E26B
:1000E00091E09F938F930E944B030F900F900E947B
:1000F000B4000DE411E00E946201EC018B811F92BB
:100100008F938A811F928F9389811F928F93888109
:100110001F928F931F930F930E944B03CE010E9457
:100120001B028DB79EB70A960FB6F8949EBF0FBEFE
:100130008DBFE1CF5F9BFECF8CB190E008955D9BBA
:10014000FECF8CB980E090E0089589B990BD88E138
:100150008AB98EE880BD6AE970E08FE990E00E947C
:10016000000380E090E00895CF92DF92EF92FF923B
:100170000F931F93CF93DF9382E791E00E94610377
:100180000E94F0027C010E94F502C12CD12C00E0FB
:1001900010E0C8E8D1E00E94F002F601F85E80832A
:1001A00020812817A9F099279F938F931F922F934F
:1001B000DF92CF92DF93CF930E944B030F5F1F4FCD
:1001C0008DB79EB708960FB6F8949EBF0FBE8DBF31
:1001D0009FEFC91AD90AC11488E0D806E1F6C70111
:1001E0000E94F502C0E0D0E0E12CF12C0F2EF2ECE1
:1001F000CF2EF1E0DF2EF02D0E94F002FE01F85E1E
:1002000020812817B1F099279F938F931F922F93E6
:10021000DF93CF93DF92CF920E944B039FEFE91AB7
:10022000F90A8DB79EB708960FB6F8949EBF0FBE19
:100230008DBF2196C11598E0D907F1F6FF92EF9294
:100240001F930F9380E092E09F938F930E944B0344
:100250000F900F900F900F900F900F90DF91CF9114
:100260001F910F91FF90EF90DF90CF90089585B789
:10027000806885BF80B7806280BF80E090E008958D
:10028000985EFC0160830895985EFC01808108956A
:100290008D9A8FB580648FBD8FB581608FBD8FB50E
:1002A00082608FBD8EB588608EBD8EB580618EBD3B
:1002B00081E090E09BBD8ABD8EB581608EBD80E0FF
:1002C00090E00895CF93DF9384E090E00E94830153
:1002D000DC0184E0FD0111928A95E9F7109200108B
:1002E00080E090EF0197F1F7FD019D012C5F3F4FFA
:1002F000C0E0D0E198819193E217F307D9F7CD01DF
:10030000DF91CF9108950F931F93CF93DF938230A6
:10031000910510F482E090E0E0915E02F0915F02BE
:1003200020E030E0A0E0B0E0309719F14081518149
:100330000281138148175907C8F08417950769F49B
:10034000109731F012960C93129713961C9327C0B6
:1003500000935E0210935F0222C02115310519F04F
:100360004217530718F49A01BD01EF01DF01F801AC
:10037000DBCF21153105F9F0281B390B243031056D
:1003800080F48A819B816115710521F0FB019383C3
:10039000828304C090935F0280935E02FE013296D6
:1003A00044C0FE01E20FF31F819391932250310963
:1003B000398328833AC020915C0230915D02232B5F
:1003C00041F4209102013091030130935D022093AA
:1003D0005C0220910001309101012115310541F4A9
:1003E0002DB73EB74091040150910501241B350BF8
:1003F000E0915C02F0915D02E217F307A0F42E1B7E
:100400003F0B2817390778F0AC014E5F5F4F241778
:10041000350748F04E0F5F1F50935D0240935C021A
:100420008193919302C0E0E0F0E0CF01DF91CF91A2
:100430001F910F910895CF93DF93009709F481C026
:10044000FC01329713821282A0915E02B0915F028A
:10045000109781F420813181820F931F20915C02DB
:1004600030915D022817390751F5F0935D02E09352
:100470005C0267C0ED0120E030E0CE17DF0740F4FA
:100480004A815B819E0141155105F1F0EA01F5CFEA
:10049000D383C28340815181840F951FC817D90728
:1004A00059F488819981840F951F029691838083E6
:1004B0008A819B81938382832115310529F4F093EE
:1004C0005F02E0935E023DC0E901FB83EA8349914C
:1004D0005991C40FD51FEC17FD0761F480819181FC
:1004E000840F951F0296E901998388838281938105
:1004F0009B838A83E0E0F0E012968D919C911397A4
:10050000009719F0FD01DC01F7CF8D919C911197B7
:100510009D012E5F3F4F820F931F20915C0230910F
:100520005D022817390769F4309729F410925F02A9
:1005300010925E0202C013821282B0935D02A093F9
:100540005C02DF91CF9108958F929F92AF92BF92FC
:10055000CF92DF92EF92FF92CF93DF93EC0168810D
:1005600079818A819B81611571058105910521F44D
:1005700064E279ED8BE597E02DE133EF41E050E067
:100580000E94450649015A019B01AC01A7EAB1E46A
:100590000E9464066B017C01ACEEB4EFA5019401EE
:1005A0000E947206DC01CB018C0D9D1DAE1DBF1D8E
:1005B000B7FF03C00197A109B04888839983AA8334
:1005C000BB839F77DF91CF91FF90EF90DF90CF902B
:1005D000BF90AF909F908F9008950E94A4020895BD
:1005E00086E091E00E94A4020895A0E0B0E080932C
:1005F000060190930701A0930801B09309010895A3
:100600000F931F93CF93DF93009731F4611571051A
:1006100019F480E090E03AC08B01EC016EE070E0EC
:1006200081E090E00E947205FC01892B91F380E843
:1006300083830115110571F01387028781E8838395
:100640008091600290916102892B21F4F093610204
:10065000E09360022097C9F0D187C08783818260D0
:1006600083838091620290916302892B71F4F093ED
:100670006302E09362028091640290916502892B8B
:1006800021F4F0936502E0936402CF01DF91CF91F2
:100690001F910F910895A0E0B0E0E1E5F3E00C9424
:1006A0008706AE014B5F5F4FFA0161917191AF0117
:1006B00080916202909163020E949103E2E00C94A7
:1006C000A3060F931F93CF93DF93E0916202F09103
:1006D0006302238121FF1BC08C01D0E0C0E0F80140
:1006E00081918F016091620270916302DB01189623
:1006F000ED91FC911997882331F00995892B79F3B5
:10070000DFEFCFEFECCF8AE00995892B19F08FEF5F
:100710009FEF02C08D2F9C2FDF91CF911F910F91E2
:100720000895ABE0B0E0E7E9F3E00C9477066C01E4
:100730007B018A01FC0117821682838181FFCCC173
:10074000CE0101963C01F6019381F70193FD85915D
:1007500093FF81917F01882309F4BAC1853239F46E
:1007600093FD859193FF81917F01853229F4B60134
:1007700090E00E94AB05E7CF912C212C312CFFE1BA
:10078000F315D8F08B3279F038F4803279F0833277
:10079000A1F4232D20611DC08D3261F0803369F4F6
:1007A000232D216016C0832D8260382EE32DE46056
:1007B0003E2E2AC0F32DF8601DC037FC2DC020ED61
:1007C000280F2A3040F08E32B9F436FC81C1232D37
:1007D0002064322E19C036FE06C08AE0989E200D95
:1007E0001124922E11C0EAE02E9E200D1124222EFB
:1007F000F32DF0623F2E08C08C3621F4832D8068E3
:10080000382E02C0883641F4F70193FD859193FF9D
:1008100081917F018111B3CF982F9F7D95549330A3
:1008200028F40C5F1F4F9FE399830DC0833631F08E
:10083000833771F0833509F059C021C0F8018081F8
:1008400089830E5F1F4F88248394912C530113C01A
:100850002801F2E04F0E511CF801A080B18036FE55
:1008600003C0692D70E002C06FEF7FEFC5010E94E9
:10087000A0054C018201F32DFF773F2E16C0280101
:1008800022E0420E511CF801A080B18036FE03C068
:10089000692D70E002C06FEF7FEFC5010E948E05E9
:1008A0004C01F32DF0683F2E820133FC1BC0822DDA
:1008B00090E088169906B0F4B60180E290E00E94BC
:1008C000AB052A94F4CFF50137FC859137FE819171
:1008D0005F01B60190E00E94AB0521102A9421E04F
:1008E000821A91088114910471F7E8C0843611F0DE
:1008F000893641F5F80137FE07C060817181828138
:1009000093810C5F1F4F08C060817181072E000C1E
:10091000880B990B0E5F1F4FF32DFF763F2E97FF2D
:1009200009C090958095709561957F4F8F4F9F4F2F
:10093000F0683F2E2AE030E0A3010E94E705882EF0
:10094000861845C0853731F4232D2F7EB22E2AE03C
:1009500030E025C0932D997FB92E8F36C1F018F461
:10096000883579F0B5C0803719F0883721F0B0C0EC
:10097000E92FE061BE2EB4FE0DC0FB2DF460BF2E4A
:1009800009C034FE0AC0292F2660B22E06C028E016
:1009900030E005C020E130E002C020E132E0F801A3
:1009A000B7FE07C060817181828193810C5F1F4F08
:1009B00006C06081718180E090E00E5F1F4FA3014F
:1009C0000E94E705882E8618FB2DFF773F2E36FE06
:1009D0000DC0232D2E7FA22E891458F434FE0BC097
:1009E00032FC09C0832D8E7EA82E05C0B82CA32C06
:1009F00003C0B82C01C0B92CA4FE0FC0FE01E80D45
:100A0000F11D8081803321F49A2D997EA92E09C091
:100A1000A2FE06C0B394B39404C08A2D867809F070
:100A2000B394A3FC11C0A0FE06C0B21488F4280C35
:100A3000922C9B180EC0B21460F4B60180E290E0D4
:100A40000E94AB05B394F7CFB21418F42B1802C070
:100A5000982C212CA4FE10C0B60180E390E00E94E7
:100A6000AB05A2FE17C0A1FC03C088E790E002C05E
:100A700088E590E0B6010CC08A2D867859F0A1FE79
:100A800002C08BE201C080E2A7FC8DE2B60190E0DB
:100A90000E94AB05891438F4B60180E390E00E940F
:100AA000AB059A94F7CF8A94F301E80DF11D80818C
:100AB000B60190E00E94AB058110F5CF222009F429
:100AC00042CEB60180E290E00E94AB052A94F6CFB8
:100AD000F6018681978102C08FEF9FEF2B96E2E1AE
:100AE0000C9493060F931F93CF93DF93869F8001FF
:100AF000879F100D969F100D1124C8010E9483013D
:100B0000EC01009729F0A80160E070E00E949905CF
:100B1000CE01DF91CF911F910F910895FC010590B7
:100B2000615070400110D8F7809590958E0F9F1FEF
:100B30000895DC0101C06D9341505040E0F70895E5
:100B4000FC016150704001900110D8F7809590959C
:100B50008E0F9F1F08950F931F93CF93DF93FB0179
:100B6000238121FD03C08FEF9FEF2CC022FF16C011
:100B700046815781248135814217530744F4A0816F
:100B8000B1819D012F5F3F4F318320838C9326815C
:100B900037812F5F3F4F3783268314C08B01EC01D1
:100BA000FB010084F185E02D0995892BE1F6D80140
:100BB00016968D919C911797019617969C938E93FC
:100BC0001697CE01DF91CF911F910F910895FA01F1
:100BD000AA27283051F1203181F1E8946F936E7F7C
:100BE0006E5F7F4F8F4F9F4FAF4FB1E03ED0B4E06D
:100BF0003CD0670F781F891F9A1FA11D680F791FAE
:100C00008A1F911DA11D6A0F711D811D911DA11DBE
:100C100020D009F468943F912AE0269F11243019CE
:100C2000305D3193DEF6CF010895462F4770405D69
:100C30004193B3E00FD0C9F7F6CF462F4F70405D18
:100C40004A3318F0495D31FD4052419302D0A9F773
:100C5000EACFB4E0A6959795879577956795BA956D
:100C6000C9F700976105710508959B01AC010A2E33
:100C700006945795479537952795BA95C9F7620F0A
:100C8000731F841F951FA01D0895052E97FB1EF44A
:100C900000940E945C0657FD07D00E94AE0607FC38
:100CA00003D04EF40C945C065095409530952195F8
:100CB0003F4F4F4F5F4F0895909580957095619588
:100CC0007F4F8F4F9F4F08950E94D006A59F900D94
:100CD000B49F900DA49F800D911D11240895B7FF1E
:100CE0000C9464060E946406821B930B08952F9255
:100CF0003F924F925F926F927F928F929F92AF92AC
:100D0000BF92CF92DF92EF92FF920F931F93CF93F8
:100D1000DF93CDB7DEB7CA1BDB0B0FB6F894DEBF8F
:100D20000FBECDBF09942A88398848885F846E84B5
:100D30007D848C849B84AA84B984C884DF80EE80FF
:100D4000FD800C811B81AA81B981CE0FD11D0FB608
:100D5000F894DEBF0FBECDBFED010895A1E21A2EBB
:100D6000AA1BBB1BFD010DC0AA1FBB1FEE1FFF1F4F
:100D7000A217B307E407F50720F0A21BB30BE40B9F
:100D8000F50B661F771F881F991F1A9469F76095E6
:100D90007095809590959B01AC01BD01CF010895A0
:100DA000A29FB001B39FC001A39F700D811D1124AC
:100DB000911DB29F700D811D1124911D0895F8940D
:020DC000FFCF63
:100DC20000006602200001000000546573740046B2
:100DD20061696C656420746F20696E697469616C05
:100DE200697A6520414443004661696C65642074F8
:100DF2006F20696E697469616C697A6520657874BF
:100E020065726E616C206D656D6F7279006368301A
:100E12003A2025642C206368313A2025642C206313
:100E220068323A2025642C206368333A2025640A0C
:100E32000D005374617274696E67205352414D20E4
:100E4200746573742E2E2E00577269746520706853
:100E5200617365206572726F723A206578745F7291
:100E6200616D5B2534645D203D2025303258202899
:100E720073686F756C642062652025303258290AC8
:100E82000D0052657472696576616C2070686173D9
:100E920065206572726F723A206578745F72616D57
:100EA2005B2534645D203D2025303258202873684C
:100EB2006F756C642062652025303258290A0D0056
:100EC2005352414D207465737420636F6D706C656D
:100ED2007465642077697468200A0D25346420657E
:100EE20072726F727320696E2077726974652070F6
:100EF2006861736520616E64200A0D253464206583
:100F020072726F727320696E20726574726965768F
:0C0F1200616C2070686173650A0A0D00B4
:00000001FF
